{"abi":[{"type":"function","name":"areSolvers","inputs":[{"name":"prospectiveSolvers","type":"address[]","internalType":"address[]"}],"outputs":[{"name":"","type":"bool","internalType":"bool"}],"stateMutability":"view"}],"bytecode":{"object":"0x608060405234801561001057600080fd5b5061015b806100206000396000f3fe608060405234801561001057600080fd5b506004361061002b5760003560e01c8063bcb494bd14610030575b600080fd5b6100a06004803603602081101561004657600080fd5b81019060208101813564010000000081111561006157600080fd5b82018360208201111561007357600080fd5b8035906020019184602083028401116401000000008311171561009557600080fd5b5090925090506100b4565b604080519115158252519081900360200190f35b6000805b8281101561011957600160008585848181106100d057fe5b6020908102929092013573ffffffffffffffffffffffffffffffffffffffff168352508101919091526040016000205460ff1661011157600091505061011f565b6001016100b8565b50600190505b9291505056fea26469706673582212209cce35ddf0194791501b486d38f8e3517447d483bf9cc1b5e649f97c19b84ae064736f6c63430007060033","linkReferences":{}},"methodIdentifiers":{"areSolvers(address[])":"bcb494bd"},"id":19}