{"abi":[{"type":"function","name":"addSolver","inputs":[{"name":"solver","type":"address","internalType":"address"}],"outputs":[],"stateMutability":"nonpayable"},{"type":"function","name":"getStorageAt","inputs":[{"name":"offset","type":"uint256","internalType":"uint256"},{"name":"length","type":"uint256","internalType":"uint256"}],"outputs":[{"name":"","type":"bytes","internalType":"bytes"}],"stateMutability":"view"},{"type":"function","name":"initializeManager","inputs":[{"name":"manager_","type":"address","internalType":"address"}],"outputs":[],"stateMutability":"nonpayable"},{"type":"function","name":"isSolver","inputs":[{"name":"prospectiveSolver","type":"address","internalType":"address"}],"outputs":[{"name":"","type":"bool","internalType":"bool"}],"stateMutability":"view"},{"type":"function","name":"manager","inputs":[],"outputs":[{"name":"","type":"address","internalType":"address"}],"stateMutability":"view"},{"type":"function","name":"removeSolver","inputs":[{"name":"solver","type":"address","internalType":"address"}],"outputs":[],"stateMutability":"nonpayable"},{"type":"function","name":"setManager","inputs":[{"name":"manager_","type":"address","internalType":"address"}],"outputs":[],"stateMutability":"nonpayable"},{"type":"function","name":"simulateDelegatecall","inputs":[{"name":"targetContract","type":"address","internalType":"address"},{"name":"calldataPayload","type":"bytes","internalType":"bytes"}],"outputs":[{"name":"response","type":"bytes","internalType":"bytes"}],"stateMutability":"nonpayable"},{"type":"function","name":"simulateDelegatecallInternal","inputs":[{"name":"targetContract","type":"address","internalType":"address"},{"name":"calldataPayload","type":"bytes","internalType":"bytes"}],"outputs":[{"name":"response","type":"bytes","internalType":"bytes"}],"stateMutability":"nonpayable"},{"type":"event","name":"ManagerChanged","inputs":[{"name":"newManager","type":"address","indexed":false,"internalType":"address"},{"name":"oldManager","type":"address","indexed":false,"internalType":"address"}],"anonymous":false},{"type":"event","name":"SolverAdded","inputs":[{"name":"solver","type":"address","indexed":false,"internalType":"address"}],"anonymous":false},{"type":"event","name":"SolverRemoved","inputs":[{"name":"solver","type":"address","indexed":false,"internalType":"address"}],"anonymous":false}],"bytecode":{"object":"0x608060405234801561001057600080fd5b50610e10806100206000396000f3fe608060405234801561001057600080fd5b50600436106100a35760003560e01c80637f7120fe11610076578063d0ebdbe71161005b578063d0ebdbe7146102e3578063ec58f4b814610316578063f84436bd14610349576100a3565b80637f7120fe1461027b5780638fd57b92146102b0576100a3565b806302cc250d146100a857806343218e19146100ef578063481c6a75146102275780635624b25b14610258575b600080fd5b6100db600480360360208110156100be57600080fd5b503573ffffffffffffffffffffffffffffffffffffffff1661040c565b604080519115158252519081900360200190f35b6101b26004803603604081101561010557600080fd5b73ffffffffffffffffffffffffffffffffffffffff823516919081019060408101602082013564010000000081111561013d57600080fd5b82018360208201111561014f57600080fd5b8035906020019184600183028401116401000000008311171561017157600080fd5b91908080601f016020809104026020016040519081016040528093929190818152602001838380828437600092019190915250929550610437945050505050565b6040805160208082528351818301528351919283929083019185019080838360005b838110156101ec5781810151838201526020016101d4565b50505050905090810190601f1680156102195780820380516001836020036101000a031916815260200191505b509250505060405180910390f35b61022f6105af565b6040805173ffffffffffffffffffffffffffffffffffffffff9092168252519081900360200190f35b6101b26004803603604081101561026e57600080fd5b50803590602001356105d1565b6102ae6004803603602081101561029157600080fd5b503573ffffffffffffffffffffffffffffffffffffffff16610647565b005b6102ae600480360360208110156102c657600080fd5b503573ffffffffffffffffffffffffffffffffffffffff166107f8565b6102ae600480360360208110156102f957600080fd5b503573ffffffffffffffffffffffffffffffffffffffff16610907565b6102ae6004803603602081101561032c57600080fd5b503573ffffffffffffffffffffffffffffffffffffffff16610a47565b6101b26004803603604081101561035f57600080fd5b73ffffffffffffffffffffffffffffffffffffffff823516919081019060408101602082013564010000000081111561039757600080fd5b8201836020820111156103a957600080fd5b803590602001918460018302840111640100000000831117156103cb57600080fd5b91908080601f016020809104026020016040519081016040528093929190818152602001838380828437600092019190915250929550610b5a945050505050565b73ffffffffffffffffffffffffffffffffffffffff1660009081526001602052604090205460ff1690565b606060008373ffffffffffffffffffffffffffffffffffffffff16836040518082805190602001908083835b602083106104a057805182527fffffffffffffffffffffffffffffffffffffffffffffffffffffffffffffffe09092019160209182019101610463565b6001836020036101000a038019825116818451168082178552505050505050905001915050600060405180830381855af49150503d8060008114610500576040519150601f19603f3d011682016040523d82523d6000602084013e610505565b606091505b5080935081925050506105a882826040516020018083805190602001908083835b6020831061056357805182527fffffffffffffffffffffffffffffffffffffffffffffffffffffffffffffffe09092019160209182019101610526565b6001836020036101000a03801982511681845116808217855250505050505090500182151560f81b815260010192505050604051602081830303815290604052610da3565b5092915050565b60005462010000900473ffffffffffffffffffffffffffffffffffffffff1681565b606060008260200267ffffffffffffffff811180156105ef57600080fd5b506040519080825280601f01601f19166020018201604052801561061a576020820181803683370190505b50905060005b8381101561063d5784810154602080830284010152600101610620565b5090505b92915050565b600054610100900460ff16806106605750610660610dab565b8061066e575060005460ff16155b6106d957604080517f08c379a000000000000000000000000000000000000000000000000000000000815260206004820152601a60248201527f496e697469616c697a61626c653a20696e697469616c697a6564000000000000604482015290519081900360640190fd5b600054610100900460ff1615801561073f57600080547fffffffffffffffffffffffffffffffffffffffffffffffffffffffffffffff007fffffffffffffffffffffffffffffffffffffffffffffffffffffffffffff00ff909116610100171660011790555b600080547fffffffffffffffffffff0000000000000000000000000000000000000000ffff166201000073ffffffffffffffffffffffffffffffffffffffff851690810291909117825560408051918252602082019290925281517f605c2dbf762e5f7d60a546d42e7205dcb1b011ebc62a61736a57c9089d3a4350929181900390910190a180156107f457600080547fffffffffffffffffffffffffffffffffffffffffffffffffffffffffffff00ff1690555b5050565b60005462010000900473ffffffffffffffffffffffffffffffffffffffff16331461088457604080517f08c379a000000000000000000000000000000000000000000000000000000000815260206004820152601860248201527f475076323a2063616c6c6572206e6f74206d616e616765720000000000000000604482015290519081900360640190fd5b73ffffffffffffffffffffffffffffffffffffffff811660008181526001602090815260409182902080547fffffffffffffffffffffffffffffffffffffffffffffffffffffffffffffff00169055815192835290517f640e18a2587e1d83e4fdabf70257d0a800ca4b2c1aaad1dfc485a4ad8bbbd6c69281900390910190a150565b60005462010000900473ffffffffffffffffffffffffffffffffffffffff1633148061094f575033610937610db1565b73ffffffffffffffffffffffffffffffffffffffff16145b6109ba57604080517f08c379a000000000000000000000000000000000000000000000000000000000815260206004820152601460248201527f475076323a206e6f7420617574686f72697a6564000000000000000000000000604482015290519081900360640190fd5b6000805473ffffffffffffffffffffffffffffffffffffffff838116620100008181027fffffffffffffffffffff0000000000000000000000000000000000000000ffff85161790945560408051918252939092041660208201819052825190927f605c2dbf762e5f7d60a546d42e7205dcb1b011ebc62a61736a57c9089d3a4350928290030190a15050565b60005462010000900473ffffffffffffffffffffffffffffffffffffffff163314610ad357604080517f08c379a000000000000000000000000000000000000000000000000000000000815260206004820152601860248201527f475076323a2063616c6c6572206e6f74206d616e616765720000000000000000604482015290519081900360640190fd5b73ffffffffffffffffffffffffffffffffffffffff811660008181526001602081815260409283902080547fffffffffffffffffffffffffffffffffffffffffffffffffffffffffffffff0016909217909155815192835290517f41f9d09dd5159251f8a8e482bbe097b7c01a5e6f70c5a0ddb494906464fc9dd79281900390910190a150565b606060006343218e1960e01b8484604051602401808373ffffffffffffffffffffffffffffffffffffffff16815260200180602001828103825283818151815260200191508051906020019080838360005b83811015610bc4578181015183820152602001610bac565b50505050905090810190601f168015610bf15780820380516001836020036101000a031916815260200191505b50604080517fffffffffffffffffffffffffffffffffffffffffffffffffffffffffffffffe08184030181529181526020820180517bffffffffffffffffffffffffffffffffffffffffffffffffffffffff167fffffffff00000000000000000000000000000000000000000000000000000000909816979097178752518151919750309688965090945084935091508083835b60208310610cc257805182527fffffffffffffffffffffffffffffffffffffffffffffffffffffffffffffffe09092019160209182019101610c85565b6001836020036101000a0380198251168184511680821785525050505050509050019150506000604051808303816000865af19150503d8060008114610d24576040519150601f19603f3d011682016040523d82523d6000602084013e610d29565b606091505b50905080925050600082600184510381518110610d4257fe5b602001015160f81c60f81b7effffffffffffffffffffffffffffffffffffffffffffffffffffffffffffff1916600160f81b149050610d85836001855103610dd6565b8015610d92575050610641565b610d9b83610da3565b505092915050565b805160208201fd5b303b1590565b7fb53127684a568b3173ae13b9f8a6016e243e63b6e8ee1178d6a717850b5d61035490565b905256fea2646970667358221220ab36b8394d2e6c9ddb78240d8633a4856966b320b3a72e227c659ebf3cff9df464736f6c63430007060033","linkReferences":{}},"methodIdentifiers":{"addSolver(address)":"ec58f4b8","getStorageAt(uint256,uint256)":"5624b25b","initializeManager(address)":"7f7120fe","isSolver(address)":"02cc250d","manager()":"481c6a75","removeSolver(address)":"8fd57b92","setManager(address)":"d0ebdbe7","simulateDelegatecall(address,bytes)":"f84436bd","simulateDelegatecallInternal(address,bytes)":"43218e19"},"id":0}