{
    "abi": [
        {
            "type": "constructor",
            "inputs": [
                {
                    "name": "authenticator_",
                    "type": "address",
                    "internalType": "contract IAllowListAuthentication"
                },
                {
                    "name": "repository_",
                    "type": "address",
                    "internalType": "contract IRepository"
                },
                {
                    "name": "permit2_",
                    "type": "address",
                    "internalType": "address"
                }
            ],
            "stateMutability": "nonpayable"
        },
        {
            "type": "receive",
            "stateMutability": "payable"
        },
        {
            "type": "function",
            "name": "AUTHENTICATOR",
            "inputs": [],
            "outputs": [
                {
                    "name": "",
                    "type": "address",
                    "internalType": "contract IAllowListAuthentication"
                }
            ],
            "stateMutability": "view"
        },
        {
            "type": "function",
            "name": "BALANCE_MANAGER",
            "inputs": [],
            "outputs": [
                {
                    "name": "",
                    "type": "address",
                    "internalType": "contract IBalanceManager"
                }
            ],
            "stateMutability": "view"
        },
        {
            "type": "function",
            "name": "DOMAIN_SEPARATOR",
            "inputs": [],
            "outputs": [
                {
                    "name": "",
                    "type": "bytes32",
                    "internalType": "bytes32"
                }
            ],
            "stateMutability": "view"
        },
        {
            "type": "function",
            "name": "REPOSITORY",
            "inputs": [],
            "outputs": [
                {
                    "name": "",
                    "type": "address",
                    "internalType": "contract IRepository"
                }
            ],
            "stateMutability": "view"
        },
        {
            "type": "function",
            "name": "cancelLimitOrder",
            "inputs": [
                {
                    "name": "nonce",
                    "type": "uint256",
                    "internalType": "uint256"
                }
            ],
            "outputs": [],
            "stateMutability": "nonpayable"
        },
        {
            "type": "function",
            "name": "hashBaseTokenData",
            "inputs": [
                {
                    "name": "_baseTokenData",
                    "type": "tuple",
                    "internalType": "struct ILiquoriceSettlement.BaseTokenData",
                    "components": [
                        {
                            "name": "addr",
                            "type": "address",
                            "internalType": "address"
                        },
                        {
                            "name": "amount",
                            "type": "uint256",
                            "internalType": "uint256"
                        },
                        {
                            "name": "toRecipient",
                            "type": "uint256",
                            "internalType": "uint256"
                        },
                        {
                            "name": "toRepay",
                            "type": "uint256",
                            "internalType": "uint256"
                        },
                        {
                            "name": "toSupply",
                            "type": "uint256",
                            "internalType": "uint256"
                        }
                    ]
                }
            ],
            "outputs": [
                {
                    "name": "",
                    "type": "bytes32",
                    "internalType": "bytes32"
                }
            ],
            "stateMutability": "pure"
        },
        {
            "type": "function",
            "name": "hashOrder",
            "inputs": [
                {
                    "name": "_order",
                    "type": "tuple",
                    "internalType": "struct ILiquoriceSettlement.Order",
                    "components": [
                        {
                            "name": "market",
                            "type": "address",
                            "internalType": "address"
                        },
                        {
                            "name": "chainId",
                            "type": "uint256",
                            "internalType": "uint256"
                        },
                        {
                            "name": "rfqId",
                            "type": "string",
                            "internalType": "string"
                        },
                        {
                            "name": "nonce",
                            "type": "uint256",
                            "internalType": "uint256"
                        },
                        {
                            "name": "trader",
                            "type": "address",
                            "internalType": "address"
                        },
                        {
                            "name": "effectiveTrader",
                            "type": "address",
                            "internalType": "address"
                        },
                        {
                            "name": "quoteExpiry",
                            "type": "uint256",
                            "internalType": "uint256"
                        },
                        {
                            "name": "recipient",
                            "type": "address",
                            "internalType": "address"
                        },
                        {
                            "name": "minFillAmount",
                            "type": "uint256",
                            "internalType": "uint256"
                        },
                        {
                            "name": "baseTokenData",
                            "type": "tuple",
                            "internalType": "struct ILiquoriceSettlement.BaseTokenData",
                            "components": [
                                {
                                    "name": "addr",
                                    "type": "address",
                                    "internalType": "address"
                                },
                                {
                                    "name": "amount",
                                    "type": "uint256",
                                    "internalType": "uint256"
                                },
                                {
                                    "name": "toRecipient",
                                    "type": "uint256",
                                    "internalType": "uint256"
                                },
                                {
                                    "name": "toRepay",
                                    "type": "uint256",
                                    "internalType": "uint256"
                                },
                                {
                                    "name": "toSupply",
                                    "type": "uint256",
                                    "internalType": "uint256"
                                }
                            ]
                        },
                        {
                            "name": "quoteTokenData",
                            "type": "tuple",
                            "internalType": "struct ILiquoriceSettlement.QuoteTokenData",
                            "components": [
                                {
                                    "name": "addr",
                                    "type": "address",
                                    "internalType": "address"
                                },
                                {
                                    "name": "amount",
                                    "type": "uint256",
                                    "internalType": "uint256"
                                },
                                {
                                    "name": "toTrader",
                                    "type": "uint256",
                                    "internalType": "uint256"
                                },
                                {
                                    "name": "toWithdraw",
                                    "type": "uint256",
                                    "internalType": "uint256"
                                },
                                {
                                    "name": "toBorrow",
                                    "type": "uint256",
                                    "internalType": "uint256"
                                }
                            ]
                        }
                    ]
                }
            ],
            "outputs": [
                {
                    "name": "",
                    "type": "bytes32",
                    "internalType": "bytes32"
                }
            ],
            "stateMutability": "view"
        },
        {
            "type": "function",
            "name": "hashQuoteTokenData",
            "inputs": [
                {
                    "name": "_quoteTokenData",
                    "type": "tuple",
                    "internalType": "struct ILiquoriceSettlement.QuoteTokenData",
                    "components": [
                        {
                            "name": "addr",
                            "type": "address",
                            "internalType": "address"
                        },
                        {
                            "name": "amount",
                            "type": "uint256",
                            "internalType": "uint256"
                        },
                        {
                            "name": "toTrader",
                            "type": "uint256",
                            "internalType": "uint256"
                        },
                        {
                            "name": "toWithdraw",
                            "type": "uint256",
                            "internalType": "uint256"
                        },
                        {
                            "name": "toBorrow",
                            "type": "uint256",
                            "internalType": "uint256"
                        }
                    ]
                }
            ],
            "outputs": [
                {
                    "name": "",
                    "type": "bytes32",
                    "internalType": "bytes32"
                }
            ],
            "stateMutability": "pure"
        },
        {
            "type": "function",
            "name": "hashSingleOrder",
            "inputs": [
                {
                    "name": "_order",
                    "type": "tuple",
                    "internalType": "struct ILiquoriceSettlement.Single",
                    "components": [
                        {
                            "name": "rfqId",
                            "type": "string",
                            "internalType": "string"
                        },
                        {
                            "name": "nonce",
                            "type": "uint256",
                            "internalType": "uint256"
                        },
                        {
                            "name": "trader",
                            "type": "address",
                            "internalType": "address"
                        },
                        {
                            "name": "effectiveTrader",
                            "type": "address",
                            "internalType": "address"
                        },
                        {
                            "name": "baseToken",
                            "type": "address",
                            "internalType": "address"
                        },
                        {
                            "name": "quoteToken",
                            "type": "address",
                            "internalType": "address"
                        },
                        {
                            "name": "baseTokenAmount",
                            "type": "uint256",
                            "internalType": "uint256"
                        },
                        {
                            "name": "quoteTokenAmount",
                            "type": "uint256",
                            "internalType": "uint256"
                        },
                        {
                            "name": "minFillAmount",
                            "type": "uint256",
                            "internalType": "uint256"
                        },
                        {
                            "name": "quoteExpiry",
                            "type": "uint256",
                            "internalType": "uint256"
                        },
                        {
                            "name": "recipient",
                            "type": "address",
                            "internalType": "address"
                        }
                    ]
                }
            ],
            "outputs": [
                {
                    "name": "",
                    "type": "bytes32",
                    "internalType": "bytes32"
                }
            ],
            "stateMutability": "view"
        },
        {
            "type": "function",
            "name": "isValidSignature",
            "inputs": [
                {
                    "name": "_hash",
                    "type": "bytes32",
                    "internalType": "bytes32"
                },
                {
                    "name": "_signature",
                    "type": "bytes",
                    "internalType": "bytes"
                }
            ],
            "outputs": [
                {
                    "name": "",
                    "type": "bytes4",
                    "internalType": "bytes4"
                }
            ],
            "stateMutability": "view"
        },
        {
            "type": "function",
            "name": "settle",
            "inputs": [
                {
                    "name": "_signer",
                    "type": "address",
                    "internalType": "address"
                },
                {
                    "name": "_filledTakerAmount",
                    "type": "uint256",
                    "internalType": "uint256"
                },
                {
                    "name": "_order",
                    "type": "tuple",
                    "internalType": "struct ILiquoriceSettlement.Order",
                    "components": [
                        {
                            "name": "market",
                            "type": "address",
                            "internalType": "address"
                        },
                        {
                            "name": "chainId",
                            "type": "uint256",
                            "internalType": "uint256"
                        },
                        {
                            "name": "rfqId",
                            "type": "string",
                            "internalType": "string"
                        },
                        {
                            "name": "nonce",
                            "type": "uint256",
                            "internalType": "uint256"
                        },
                        {
                            "name": "trader",
                            "type": "address",
                            "internalType": "address"
                        },
                        {
                            "name": "effectiveTrader",
                            "type": "address",
                            "internalType": "address"
                        },
                        {
                            "name": "quoteExpiry",
                            "type": "uint256",
                            "internalType": "uint256"
                        },
                        {
                            "name": "recipient",
                            "type": "address",
                            "internalType": "address"
                        },
                        {
                            "name": "minFillAmount",
                            "type": "uint256",
                            "internalType": "uint256"
                        },
                        {
                            "name": "baseTokenData",
                            "type": "tuple",
                            "internalType": "struct ILiquoriceSettlement.BaseTokenData",
                            "components": [
                                {
                                    "name": "addr",
                                    "type": "address",
                                    "internalType": "address"
                                },
                                {
                                    "name": "amount",
                                    "type": "uint256",
                                    "internalType": "uint256"
                                },
                                {
                                    "name": "toRecipient",
                                    "type": "uint256",
                                    "internalType": "uint256"
                                },
                                {
                                    "name": "toRepay",
                                    "type": "uint256",
                                    "internalType": "uint256"
                                },
                                {
                                    "name": "toSupply",
                                    "type": "uint256",
                                    "internalType": "uint256"
                                }
                            ]
                        },
                        {
                            "name": "quoteTokenData",
                            "type": "tuple",
                            "internalType": "struct ILiquoriceSettlement.QuoteTokenData",
                            "components": [
                                {
                                    "name": "addr",
                                    "type": "address",
                                    "internalType": "address"
                                },
                                {
                                    "name": "amount",
                                    "type": "uint256",
                                    "internalType": "uint256"
                                },
                                {
                                    "name": "toTrader",
                                    "type": "uint256",
                                    "internalType": "uint256"
                                },
                                {
                                    "name": "toWithdraw",
                                    "type": "uint256",
                                    "internalType": "uint256"
                                },
                                {
                                    "name": "toBorrow",
                                    "type": "uint256",
                                    "internalType": "uint256"
                                }
                            ]
                        }
                    ]
                },
                {
                    "name": "_interactions",
                    "type": "tuple[]",
                    "internalType": "struct GPv2Interaction.Data[]",
                    "components": [
                        {
                            "name": "target",
                            "type": "address",
                            "internalType": "address"
                        },
                        {
                            "name": "value",
                            "type": "uint256",
                            "internalType": "uint256"
                        },
                        {
                            "name": "callData",
                            "type": "bytes",
                            "internalType": "bytes"
                        }
                    ]
                },
                {
                    "name": "_hooks",
                    "type": "tuple",
                    "internalType": "struct GPv2Interaction.Hooks",
                    "components": [
                        {
                            "name": "beforeSettle",
                            "type": "tuple[]",
                            "internalType": "struct GPv2Interaction.Data[]",
                            "components": [
                                {
                                    "name": "target",
                                    "type": "address",
                                    "internalType": "address"
                                },
                                {
                                    "name": "value",
                                    "type": "uint256",
                                    "internalType": "uint256"
                                },
                                {
                                    "name": "callData",
                                    "type": "bytes",
                                    "internalType": "bytes"
                                }
                            ]
                        },
                        {
                            "name": "afterSettle",
                            "type": "tuple[]",
                            "internalType": "struct GPv2Interaction.Data[]",
                            "components": [
                                {
                                    "name": "target",
                                    "type": "address",
                                    "internalType": "address"
                                },
                                {
                                    "name": "value",
                                    "type": "uint256",
                                    "internalType": "uint256"
                                },
                                {
                                    "name": "callData",
                                    "type": "bytes",
                                    "internalType": "bytes"
                                }
                            ]
                        }
                    ]
                },
                {
                    "name": "_makerSignature",
                    "type": "tuple",
                    "internalType": "struct Signature.TypedSignature",
                    "components": [
                        {
                            "name": "signatureType",
                            "type": "uint8",
                            "internalType": "enum Signature.Type"
                        },
                        {
                            "name": "transferCommand",
                            "type": "uint8",
                            "internalType": "enum Signature.TransferCommand"
                        },
                        {
                            "name": "signatureBytes",
                            "type": "bytes",
                            "internalType": "bytes"
                        }
                    ]
                },
                {
                    "name": "_takerSignature",
                    "type": "tuple",
                    "internalType": "struct Signature.TypedSignature",
                    "components": [
                        {
                            "name": "signatureType",
                            "type": "uint8",
                            "internalType": "enum Signature.Type"
                        },
                        {
                            "name": "transferCommand",
                            "type": "uint8",
                            "internalType": "enum Signature.TransferCommand"
                        },
                        {
                            "name": "signatureBytes",
                            "type": "bytes",
                            "internalType": "bytes"
                        }
                    ]
                }
            ],
            "outputs": [],
            "stateMutability": "nonpayable"
        },
        {
            "type": "function",
            "name": "settleSingle",
            "inputs": [
                {
                    "name": "_signer",
                    "type": "address",
                    "internalType": "address"
                },
                {
                    "name": "_order",
                    "type": "tuple",
                    "internalType": "struct ILiquoriceSettlement.Single",
                    "components": [
                        {
                            "name": "rfqId",
                            "type": "string",
                            "internalType": "string"
                        },
                        {
                            "name": "nonce",
                            "type": "uint256",
                            "internalType": "uint256"
                        },
                        {
                            "name": "trader",
                            "type": "address",
                            "internalType": "address"
                        },
                        {
                            "name": "effectiveTrader",
                            "type": "address",
                            "internalType": "address"
                        },
                        {
                            "name": "baseToken",
                            "type": "address",
                            "internalType": "address"
                        },
                        {
                            "name": "quoteToken",
                            "type": "address",
                            "internalType": "address"
                        },
                        {
                            "name": "baseTokenAmount",
                            "type": "uint256",
                            "internalType": "uint256"
                        },
                        {
                            "name": "quoteTokenAmount",
                            "type": "uint256",
                            "internalType": "uint256"
                        },
                        {
                            "name": "minFillAmount",
                            "type": "uint256",
                            "internalType": "uint256"
                        },
                        {
                            "name": "quoteExpiry",
                            "type": "uint256",
                            "internalType": "uint256"
                        },
                        {
                            "name": "recipient",
                            "type": "address",
                            "internalType": "address"
                        }
                    ]
                },
                {
                    "name": "_makerSignature",
                    "type": "tuple",
                    "internalType": "struct Signature.TypedSignature",
                    "components": [
                        {
                            "name": "signatureType",
                            "type": "uint8",
                            "internalType": "enum Signature.Type"
                        },
                        {
                            "name": "transferCommand",
                            "type": "uint8",
                            "internalType": "enum Signature.TransferCommand"
                        },
                        {
                            "name": "signatureBytes",
                            "type": "bytes",
                            "internalType": "bytes"
                        }
                    ]
                },
                {
                    "name": "_filledTakerAmount",
                    "type": "uint256",
                    "internalType": "uint256"
                },
                {
                    "name": "_takerSignature",
                    "type": "tuple",
                    "internalType": "struct Signature.TypedSignature",
                    "components": [
                        {
                            "name": "signatureType",
                            "type": "uint8",
                            "internalType": "enum Signature.Type"
                        },
                        {
                            "name": "transferCommand",
                            "type": "uint8",
                            "internalType": "enum Signature.TransferCommand"
                        },
                        {
                            "name": "signatureBytes",
                            "type": "bytes",
                            "internalType": "bytes"
                        }
                    ]
                }
            ],
            "outputs": [],
            "stateMutability": "payable"
        },
        {
            "type": "function",
            "name": "settleSingleWithPermitsSignatures",
            "inputs": [
                {
                    "name": "_signer",
                    "type": "address",
                    "internalType": "address"
                },
                {
                    "name": "_order",
                    "type": "tuple",
                    "internalType": "struct ILiquoriceSettlement.Single",
                    "components": [
                        {
                            "name": "rfqId",
                            "type": "string",
                            "internalType": "string"
                        },
                        {
                            "name": "nonce",
                            "type": "uint256",
                            "internalType": "uint256"
                        },
                        {
                            "name": "trader",
                            "type": "address",
                            "internalType": "address"
                        },
                        {
                            "name": "effectiveTrader",
                            "type": "address",
                            "internalType": "address"
                        },
                        {
                            "name": "baseToken",
                            "type": "address",
                            "internalType": "address"
                        },
                        {
                            "name": "quoteToken",
                            "type": "address",
                            "internalType": "address"
                        },
                        {
                            "name": "baseTokenAmount",
                            "type": "uint256",
                            "internalType": "uint256"
                        },
                        {
                            "name": "quoteTokenAmount",
                            "type": "uint256",
                            "internalType": "uint256"
                        },
                        {
                            "name": "minFillAmount",
                            "type": "uint256",
                            "internalType": "uint256"
                        },
                        {
                            "name": "quoteExpiry",
                            "type": "uint256",
                            "internalType": "uint256"
                        },
                        {
                            "name": "recipient",
                            "type": "address",
                            "internalType": "address"
                        }
                    ]
                },
                {
                    "name": "_makerSignature",
                    "type": "tuple",
                    "internalType": "struct Signature.TypedSignature",
                    "components": [
                        {
                            "name": "signatureType",
                            "type": "uint8",
                            "internalType": "enum Signature.Type"
                        },
                        {
                            "name": "transferCommand",
                            "type": "uint8",
                            "internalType": "enum Signature.TransferCommand"
                        },
                        {
                            "name": "signatureBytes",
                            "type": "bytes",
                            "internalType": "bytes"
                        }
                    ]
                },
                {
                    "name": "_filledTakerAmount",
                    "type": "uint256",
                    "internalType": "uint256"
                },
                {
                    "name": "_takerSignature",
                    "type": "tuple",
                    "internalType": "struct Signature.TypedSignature",
                    "components": [
                        {
                            "name": "signatureType",
                            "type": "uint8",
                            "internalType": "enum Signature.Type"
                        },
                        {
                            "name": "transferCommand",
                            "type": "uint8",
                            "internalType": "enum Signature.TransferCommand"
                        },
                        {
                            "name": "signatureBytes",
                            "type": "bytes",
                            "internalType": "bytes"
                        }
                    ]
                },
                {
                    "name": "_takerPermitInfo",
                    "type": "tuple",
                    "internalType": "struct Signature.TakerPermitInfo",
                    "components": [
                        {
                            "name": "signature",
                            "type": "bytes",
                            "internalType": "bytes"
                        },
                        {
                            "name": "nonce",
                            "type": "uint48",
                            "internalType": "uint48"
                        },
                        {
                            "name": "deadline",
                            "type": "uint48",
                            "internalType": "uint48"
                        }
                    ]
                }
            ],
            "outputs": [],
            "stateMutability": "payable"
        },
        {
            "type": "function",
            "name": "settleWithPermitsSignatures",
            "inputs": [
                {
                    "name": "_signer",
                    "type": "address",
                    "internalType": "address"
                },
                {
                    "name": "_filledTakerAmount",
                    "type": "uint256",
                    "internalType": "uint256"
                },
                {
                    "name": "_order",
                    "type": "tuple",
                    "internalType": "struct ILiquoriceSettlement.Order",
                    "components": [
                        {
                            "name": "market",
                            "type": "address",
                            "internalType": "address"
                        },
                        {
                            "name": "chainId",
                            "type": "uint256",
                            "internalType": "uint256"
                        },
                        {
                            "name": "rfqId",
                            "type": "string",
                            "internalType": "string"
                        },
                        {
                            "name": "nonce",
                            "type": "uint256",
                            "internalType": "uint256"
                        },
                        {
                            "name": "trader",
                            "type": "address",
                            "internalType": "address"
                        },
                        {
                            "name": "effectiveTrader",
                            "type": "address",
                            "internalType": "address"
                        },
                        {
                            "name": "quoteExpiry",
                            "type": "uint256",
                            "internalType": "uint256"
                        },
                        {
                            "name": "recipient",
                            "type": "address",
                            "internalType": "address"
                        },
                        {
                            "name": "minFillAmount",
                            "type": "uint256",
                            "internalType": "uint256"
                        },
                        {
                            "name": "baseTokenData",
                            "type": "tuple",
                            "internalType": "struct ILiquoriceSettlement.BaseTokenData",
                            "components": [
                                {
                                    "name": "addr",
                                    "type": "address",
                                    "internalType": "address"
                                },
                                {
                                    "name": "amount",
                                    "type": "uint256",
                                    "internalType": "uint256"
                                },
                                {
                                    "name": "toRecipient",
                                    "type": "uint256",
                                    "internalType": "uint256"
                                },
                                {
                                    "name": "toRepay",
                                    "type": "uint256",
                                    "internalType": "uint256"
                                },
                                {
                                    "name": "toSupply",
                                    "type": "uint256",
                                    "internalType": "uint256"
                                }
                            ]
                        },
                        {
                            "name": "quoteTokenData",
                            "type": "tuple",
                            "internalType": "struct ILiquoriceSettlement.QuoteTokenData",
                            "components": [
                                {
                                    "name": "addr",
                                    "type": "address",
                                    "internalType": "address"
                                },
                                {
                                    "name": "amount",
                                    "type": "uint256",
                                    "internalType": "uint256"
                                },
                                {
                                    "name": "toTrader",
                                    "type": "uint256",
                                    "internalType": "uint256"
                                },
                                {
                                    "name": "toWithdraw",
                                    "type": "uint256",
                                    "internalType": "uint256"
                                },
                                {
                                    "name": "toBorrow",
                                    "type": "uint256",
                                    "internalType": "uint256"
                                }
                            ]
                        }
                    ]
                },
                {
                    "name": "_interactions",
                    "type": "tuple[]",
                    "internalType": "struct GPv2Interaction.Data[]",
                    "components": [
                        {
                            "name": "target",
                            "type": "address",
                            "internalType": "address"
                        },
                        {
                            "name": "value",
                            "type": "uint256",
                            "internalType": "uint256"
                        },
                        {
                            "name": "callData",
                            "type": "bytes",
                            "internalType": "bytes"
                        }
                    ]
                },
                {
                    "name": "_hooks",
                    "type": "tuple",
                    "internalType": "struct GPv2Interaction.Hooks",
                    "components": [
                        {
                            "name": "beforeSettle",
                            "type": "tuple[]",
                            "internalType": "struct GPv2Interaction.Data[]",
                            "components": [
                                {
                                    "name": "target",
                                    "type": "address",
                                    "internalType": "address"
                                },
                                {
                                    "name": "value",
                                    "type": "uint256",
                                    "internalType": "uint256"
                                },
                                {
                                    "name": "callData",
                                    "type": "bytes",
                                    "internalType": "bytes"
                                }
                            ]
                        },
                        {
                            "name": "afterSettle",
                            "type": "tuple[]",
                            "internalType": "struct GPv2Interaction.Data[]",
                            "components": [
                                {
                                    "name": "target",
                                    "type": "address",
                                    "internalType": "address"
                                },
                                {
                                    "name": "value",
                                    "type": "uint256",
                                    "internalType": "uint256"
                                },
                                {
                                    "name": "callData",
                                    "type": "bytes",
                                    "internalType": "bytes"
                                }
                            ]
                        }
                    ]
                },
                {
                    "name": "_makerSignature",
                    "type": "tuple",
                    "internalType": "struct Signature.TypedSignature",
                    "components": [
                        {
                            "name": "signatureType",
                            "type": "uint8",
                            "internalType": "enum Signature.Type"
                        },
                        {
                            "name": "transferCommand",
                            "type": "uint8",
                            "internalType": "enum Signature.TransferCommand"
                        },
                        {
                            "name": "signatureBytes",
                            "type": "bytes",
                            "internalType": "bytes"
                        }
                    ]
                },
                {
                    "name": "_takerSignature",
                    "type": "tuple",
                    "internalType": "struct Signature.TypedSignature",
                    "components": [
                        {
                            "name": "signatureType",
                            "type": "uint8",
                            "internalType": "enum Signature.Type"
                        },
                        {
                            "name": "transferCommand",
                            "type": "uint8",
                            "internalType": "enum Signature.TransferCommand"
                        },
                        {
                            "name": "signatureBytes",
                            "type": "bytes",
                            "internalType": "bytes"
                        }
                    ]
                },
                {
                    "name": "_takerPermitInfo",
                    "type": "tuple",
                    "internalType": "struct Signature.TakerPermitInfo",
                    "components": [
                        {
                            "name": "signature",
                            "type": "bytes",
                            "internalType": "bytes"
                        },
                        {
                            "name": "nonce",
                            "type": "uint48",
                            "internalType": "uint48"
                        },
                        {
                            "name": "deadline",
                            "type": "uint48",
                            "internalType": "uint48"
                        }
                    ]
                }
            ],
            "outputs": [],
            "stateMutability": "payable"
        },
        {
            "type": "function",
            "name": "validateHooks",
            "inputs": [
                {
                    "name": "_repository",
                    "type": "address",
                    "internalType": "contract IRepository"
                },
                {
                    "name": "_hooks",
                    "type": "tuple",
                    "internalType": "struct GPv2Interaction.Hooks",
                    "components": [
                        {
                            "name": "beforeSettle",
                            "type": "tuple[]",
                            "internalType": "struct GPv2Interaction.Data[]",
                            "components": [
                                {
                                    "name": "target",
                                    "type": "address",
                                    "internalType": "address"
                                },
                                {
                                    "name": "value",
                                    "type": "uint256",
                                    "internalType": "uint256"
                                },
                                {
                                    "name": "callData",
                                    "type": "bytes",
                                    "internalType": "bytes"
                                }
                            ]
                        },
                        {
                            "name": "afterSettle",
                            "type": "tuple[]",
                            "internalType": "struct GPv2Interaction.Data[]",
                            "components": [
                                {
                                    "name": "target",
                                    "type": "address",
                                    "internalType": "address"
                                },
                                {
                                    "name": "value",
                                    "type": "uint256",
                                    "internalType": "uint256"
                                },
                                {
                                    "name": "callData",
                                    "type": "bytes",
                                    "internalType": "bytes"
                                }
                            ]
                        }
                    ]
                }
            ],
            "outputs": [],
            "stateMutability": "view"
        },
        {
            "type": "function",
            "name": "validateInteractions",
            "inputs": [
                {
                    "name": "_repository",
                    "type": "address",
                    "internalType": "contract IRepository"
                },
                {
                    "name": "_signer",
                    "type": "address",
                    "internalType": "address"
                },
                {
                    "name": "_isPartialFill",
                    "type": "bool",
                    "internalType": "bool"
                },
                {
                    "name": "_order",
                    "type": "tuple",
                    "internalType": "struct ILiquoriceSettlement.Order",
                    "components": [
                        {
                            "name": "market",
                            "type": "address",
                            "internalType": "address"
                        },
                        {
                            "name": "chainId",
                            "type": "uint256",
                            "internalType": "uint256"
                        },
                        {
                            "name": "rfqId",
                            "type": "string",
                            "internalType": "string"
                        },
                        {
                            "name": "nonce",
                            "type": "uint256",
                            "internalType": "uint256"
                        },
                        {
                            "name": "trader",
                            "type": "address",
                            "internalType": "address"
                        },
                        {
                            "name": "effectiveTrader",
                            "type": "address",
                            "internalType": "address"
                        },
                        {
                            "name": "quoteExpiry",
                            "type": "uint256",
                            "internalType": "uint256"
                        },
                        {
                            "name": "recipient",
                            "type": "address",
                            "internalType": "address"
                        },
                        {
                            "name": "minFillAmount",
                            "type": "uint256",
                            "internalType": "uint256"
                        },
                        {
                            "name": "baseTokenData",
                            "type": "tuple",
                            "internalType": "struct ILiquoriceSettlement.BaseTokenData",
                            "components": [
                                {
                                    "name": "addr",
                                    "type": "address",
                                    "internalType": "address"
                                },
                                {
                                    "name": "amount",
                                    "type": "uint256",
                                    "internalType": "uint256"
                                },
                                {
                                    "name": "toRecipient",
                                    "type": "uint256",
                                    "internalType": "uint256"
                                },
                                {
                                    "name": "toRepay",
                                    "type": "uint256",
                                    "internalType": "uint256"
                                },
                                {
                                    "name": "toSupply",
                                    "type": "uint256",
                                    "internalType": "uint256"
                                }
                            ]
                        },
                        {
                            "name": "quoteTokenData",
                            "type": "tuple",
                            "internalType": "struct ILiquoriceSettlement.QuoteTokenData",
                            "components": [
                                {
                                    "name": "addr",
                                    "type": "address",
                                    "internalType": "address"
                                },
                                {
                                    "name": "amount",
                                    "type": "uint256",
                                    "internalType": "uint256"
                                },
                                {
                                    "name": "toTrader",
                                    "type": "uint256",
                                    "internalType": "uint256"
                                },
                                {
                                    "name": "toWithdraw",
                                    "type": "uint256",
                                    "internalType": "uint256"
                                },
                                {
                                    "name": "toBorrow",
                                    "type": "uint256",
                                    "internalType": "uint256"
                                }
                            ]
                        }
                    ]
                },
                {
                    "name": "_interactions",
                    "type": "tuple[]",
                    "internalType": "struct GPv2Interaction.Data[]",
                    "components": [
                        {
                            "name": "target",
                            "type": "address",
                            "internalType": "address"
                        },
                        {
                            "name": "value",
                            "type": "uint256",
                            "internalType": "uint256"
                        },
                        {
                            "name": "callData",
                            "type": "bytes",
                            "internalType": "bytes"
                        }
                    ]
                }
            ],
            "outputs": [],
            "stateMutability": "view"
        },
        {
            "type": "function",
            "name": "validateOrderAmounts",
            "inputs": [
                {
                    "name": "_order",
                    "type": "tuple",
                    "internalType": "struct ILiquoriceSettlement.Order",
                    "components": [
                        {
                            "name": "market",
                            "type": "address",
                            "internalType": "address"
                        },
                        {
                            "name": "chainId",
                            "type": "uint256",
                            "internalType": "uint256"
                        },
                        {
                            "name": "rfqId",
                            "type": "string",
                            "internalType": "string"
                        },
                        {
                            "name": "nonce",
                            "type": "uint256",
                            "internalType": "uint256"
                        },
                        {
                            "name": "trader",
                            "type": "address",
                            "internalType": "address"
                        },
                        {
                            "name": "effectiveTrader",
                            "type": "address",
                            "internalType": "address"
                        },
                        {
                            "name": "quoteExpiry",
                            "type": "uint256",
                            "internalType": "uint256"
                        },
                        {
                            "name": "recipient",
                            "type": "address",
                            "internalType": "address"
                        },
                        {
                            "name": "minFillAmount",
                            "type": "uint256",
                            "internalType": "uint256"
                        },
                        {
                            "name": "baseTokenData",
                            "type": "tuple",
                            "internalType": "struct ILiquoriceSettlement.BaseTokenData",
                            "components": [
                                {
                                    "name": "addr",
                                    "type": "address",
                                    "internalType": "address"
                                },
                                {
                                    "name": "amount",
                                    "type": "uint256",
                                    "internalType": "uint256"
                                },
                                {
                                    "name": "toRecipient",
                                    "type": "uint256",
                                    "internalType": "uint256"
                                },
                                {
                                    "name": "toRepay",
                                    "type": "uint256",
                                    "internalType": "uint256"
                                },
                                {
                                    "name": "toSupply",
                                    "type": "uint256",
                                    "internalType": "uint256"
                                }
                            ]
                        },
                        {
                            "name": "quoteTokenData",
                            "type": "tuple",
                            "internalType": "struct ILiquoriceSettlement.QuoteTokenData",
                            "components": [
                                {
                                    "name": "addr",
                                    "type": "address",
                                    "internalType": "address"
                                },
                                {
                                    "name": "amount",
                                    "type": "uint256",
                                    "internalType": "uint256"
                                },
                                {
                                    "name": "toTrader",
                                    "type": "uint256",
                                    "internalType": "uint256"
                                },
                                {
                                    "name": "toWithdraw",
                                    "type": "uint256",
                                    "internalType": "uint256"
                                },
                                {
                                    "name": "toBorrow",
                                    "type": "uint256",
                                    "internalType": "uint256"
                                }
                            ]
                        }
                    ]
                }
            ],
            "outputs": [],
            "stateMutability": "pure"
        },
        {
            "type": "function",
            "name": "validateSignature",
            "inputs": [
                {
                    "name": "_validationAddress",
                    "type": "address",
                    "internalType": "address"
                },
                {
                    "name": "_hash",
                    "type": "bytes32",
                    "internalType": "bytes32"
                },
                {
                    "name": "_signature",
                    "type": "tuple",
                    "internalType": "struct Signature.TypedSignature",
                    "components": [
                        {
                            "name": "signatureType",
                            "type": "uint8",
                            "internalType": "enum Signature.Type"
                        },
                        {
                            "name": "transferCommand",
                            "type": "uint8",
                            "internalType": "enum Signature.TransferCommand"
                        },
                        {
                            "name": "signatureBytes",
                            "type": "bytes",
                            "internalType": "bytes"
                        }
                    ]
                }
            ],
            "outputs": [],
            "stateMutability": "view"
        },
        {
            "type": "event",
            "name": "Interaction",
            "inputs": [
                {
                    "name": "target",
                    "type": "address",
                    "indexed": true,
                    "internalType": "address"
                },
                {
                    "name": "value",
                    "type": "uint256",
                    "indexed": false,
                    "internalType": "uint256"
                },
                {
                    "name": "selector",
                    "type": "bytes4",
                    "indexed": false,
                    "internalType": "bytes4"
                }
            ],
            "anonymous": false
        },
        {
            "type": "event",
            "name": "TradeOrder",
            "inputs": [
                {
                    "name": "rfqId",
                    "type": "string",
                    "indexed": true,
                    "internalType": "string"
                },
                {
                    "name": "trader",
                    "type": "address",
                    "indexed": false,
                    "internalType": "address"
                },
                {
                    "name": "effectiveTrader",
                    "type": "address",
                    "indexed": false,
                    "internalType": "address"
                },
                {
                    "name": "baseToken",
                    "type": "address",
                    "indexed": false,
                    "internalType": "address"
                },
                {
                    "name": "quoteToken",
                    "type": "address",
                    "indexed": false,
                    "internalType": "address"
                },
                {
                    "name": "baseTokenAmount",
                    "type": "uint256",
                    "indexed": false,
                    "internalType": "uint256"
                },
                {
                    "name": "quoteTokenAmount",
                    "type": "uint256",
                    "indexed": false,
                    "internalType": "uint256"
                },
                {
                    "name": "recipient",
                    "type": "address",
                    "indexed": false,
                    "internalType": "address"
                }
            ],
            "anonymous": false
        },
        {
            "type": "error",
            "name": "ECDSAInvalidSignature",
            "inputs": []
        },
        {
            "type": "error",
            "name": "ECDSAInvalidSignatureLength",
            "inputs": [
                {
                    "name": "length",
                    "type": "uint256",
                    "internalType": "uint256"
                }
            ]
        },
        {
            "type": "error",
            "name": "ECDSAInvalidSignatureS",
            "inputs": [
                {
                    "name": "s",
                    "type": "bytes32",
                    "internalType": "bytes32"
                }
            ]
        },
        {
            "type": "error",
            "name": "InvalidAmount",
            "inputs": []
        },
        {
            "type": "error",
            "name": "InvalidAsset",
            "inputs": []
        },
        {
            "type": "error",
            "name": "InvalidBaseTokenAmounts",
            "inputs": []
        },
        {
            "type": "error",
            "name": "InvalidDestination",
            "inputs": []
        },
        {
            "type": "error",
            "name": "InvalidEIP1271Signature",
            "inputs": []
        },
        {
            "type": "error",
            "name": "InvalidEIP712Signature",
            "inputs": []
        },
        {
            "type": "error",
            "name": "InvalidETHSignSignature",
            "inputs": []
        },
        {
            "type": "error",
            "name": "InvalidFillAmount",
            "inputs": []
        },
        {
            "type": "error",
            "name": "InvalidHooksTarget",
            "inputs": []
        },
        {
            "type": "error",
            "name": "InvalidInteractionsBaseTokenAmounts",
            "inputs": []
        },
        {
            "type": "error",
            "name": "InvalidInteractionsQuoteTokenAmounts",
            "inputs": []
        },
        {
            "type": "error",
            "name": "InvalidLendingPoolInteraction",
            "inputs": []
        },
        {
            "type": "error",
            "name": "InvalidQuoteTokenAmounts",
            "inputs": []
        },
        {
            "type": "error",
            "name": "InvalidSignatureType",
            "inputs": []
        },
        {
            "type": "error",
            "name": "InvalidSigner",
            "inputs": []
        },
        {
            "type": "error",
            "name": "InvalidSource",
            "inputs": []
        },
        {
            "type": "error",
            "name": "NonceInvalid",
            "inputs": []
        },
        {
            "type": "error",
            "name": "NotMaker",
            "inputs": []
        },
        {
            "type": "error",
            "name": "NotSolver",
            "inputs": []
        },
        {
            "type": "error",
            "name": "OrderExpired",
            "inputs": []
        },
        {
            "type": "error",
            "name": "PartialFillNotSupported",
            "inputs": []
        },
        {
            "type": "error",
            "name": "ReceiverNotManager",
            "inputs": []
        },
        {
            "type": "error",
            "name": "ReentrancyGuardReentrantCall",
            "inputs": []
        },
        {
            "type": "error",
            "name": "SafeERC20FailedOperation",
            "inputs": [
                {
                    "name": "token",
                    "type": "address",
                    "internalType": "address"
                }
            ]
        },
        {
            "type": "error",
            "name": "SignatureIsExpired",
            "inputs": []
        },
        {
            "type": "error",
            "name": "SignatureIsNotEmpty",
            "inputs": []
        },
        {
            "type": "error",
            "name": "UpdatedMakerAmountsTooLow",
            "inputs": []
        },
        {
            "type": "error",
            "name": "ZeroMakerAmount",
            "inputs": []
        }
    ],
    "bytecode": {
        "object": "0x61012060405234801562000011575f80fd5b5060405162004ef638038062004ef6833981016040819052620000349162000175565b4660a0818152604080517f8b73c3c69bb8fe3d512ecc4cf759cc79239f7b179b0ffacaa9a75d522b39400f60208201527f64afec7be651c92f86754beb2bd5eeaf2fa95e83faf4aee989877dde08e4498c918101919091527fc89efdaa54c0f20c7adf612882df0950f5a951637e0307cdcb4c672f298b8bc660608201526080810192909252309082015260c00160408051601f19818403018152908290528051602090910120608052600180556001600160a01b03841660c05230908290620000fe906200014f565b6001600160a01b03928316815291166020820152604001604051809103905ff0801580156200012f573d5f803e3d5ffd5b506001600160a01b0390811660e052919091166101005250620001c69050565b610963806200459383390190565b6001600160a01b038116811462000172575f80fd5b50565b5f805f6060848603121562000188575f80fd5b835162000195816200015d565b6020850151909350620001a8816200015d565b6040850151909250620001bb816200015d565b809150509250925092565b60805160a05160c05160e0516101005161432d620002665f395f81816102570152818161078401526116dc01525f8181610197015281816107ba0152818161188c01528181611e2c01528181611f1e0152818161202c0152818161230b01528181612427015261303c01525f818161033801528181610412015281816106a70152818161152001526115ff01525f6104da01525f6105a4015261432d5ff3fe608060405260043610610126575f3560e01c8063a5cdc8fc116100a1578063c618618111610071578063db58772811610057578063db58772814610379578063e242924e1461038c578063fa5cd56c146103ab575f80fd5b8063c618618114610327578063cba673a71461035a575f80fd5b8063a5cdc8fc146102ab578063a7ab49bc146102ca578063ae80c584146102e9578063b11f126214610308575f80fd5b806351d46815116100f65780636f35d2d2116100dc5780636f35d2d214610246578063875530ff146102795780639935c86814610298575f80fd5b806351d46815146102125780635aa0e95d14610227575f80fd5b80631626ba7e1461013157806329bcdc95146101865780633644e515146101d15780634c9e03d3146101f3575f80fd5b3661012d57005b5f80fd5b34801561013c575f80fd5b5061015061014b366004613595565b6103ca565b6040517fffffffff0000000000000000000000000000000000000000000000000000000090911681526020015b60405180910390f35b348015610191575f80fd5b506101b97f000000000000000000000000000000000000000000000000000000000000000081565b6040516001600160a01b03909116815260200161017d565b3480156101dc575f80fd5b506101e56104d7565b60405190815260200161017d565b3480156101fe575f80fd5b506101e561020d366004613620565b6105c6565b6102256102203660046136d7565b610667565b005b348015610232575f80fd5b506102256102413660046137e1565b6109e8565b348015610251575f80fd5b506101b97f000000000000000000000000000000000000000000000000000000000000000081565b348015610284575f80fd5b506101e5610293366004613620565b610c30565b6102256102a636600461383f565b610c5f565b3480156102b6575f80fd5b506102256102c53660046138dd565b610c7f565b3480156102d5575f80fd5b506102256102e4366004613901565b610c8c565b3480156102f4575f80fd5b5061022561030336600461399d565b611067565b348015610313575f80fd5b506101e56103223660046139f2565b6112eb565b348015610332575f80fd5b506101b97f000000000000000000000000000000000000000000000000000000000000000081565b348015610365575f80fd5b50610225610374366004613a24565b6114ea565b610225610387366004613b0b565b611878565b348015610397575f80fd5b506101e56103a6366004613bc9565b61194c565b3480156103b6575f80fd5b506102256103c5366004613bc9565b611a8e565b5f806103d7858585611b50565b6040517fe75600c30000000000000000000000000000000000000000000000000000000081526001600160a01b0380831660048301529192507f00000000000000000000000000000000000000000000000000000000000000009091169063e75600c390602401602060405180830381865afa158015610459573d5f803e3d5ffd5b505050506040513d601f19601f8201168201806040525081019061047d9190613bfb565b156104ab577f1626ba7e356f5979dd355a3d2bfb43e80420a480c3b854edce286a82d74968699150506104d0565b507fffffffff0000000000000000000000000000000000000000000000000000000090505b9392505050565b5f7f000000000000000000000000000000000000000000000000000000000000000046146105a157604080517f8b73c3c69bb8fe3d512ecc4cf759cc79239f7b179b0ffacaa9a75d522b39400f60208201527f64afec7be651c92f86754beb2bd5eeaf2fa95e83faf4aee989877dde08e4498c918101919091527fc89efdaa54c0f20c7adf612882df0950f5a951637e0307cdcb4c672f298b8bc660608201524660808201523060a082015260c00160405160208183030381529060405280519060200120905090565b507f000000000000000000000000000000000000000000000000000000000000000090565b5f7f68b8e94dc077458241d6c8d89f0a7665c7cda2cfe70c9eb4437efee1663c66fe6105f56020840184613c16565b836020013584604001358560600135866080013560405160200161064a969594939291909586526001600160a01b0394909416602086015260408501929092526060840152608083015260a082015260c00190565b604051602081830303815290604052805190602001209050919050565b61066f611bdb565b6040517fe75600c30000000000000000000000000000000000000000000000000000000081526001600160a01b038a811660048301527f0000000000000000000000000000000000000000000000000000000000000000169063e75600c390602401602060405180830381865afa1580156106ec573d5f803e3d5ffd5b505050506040513d601f19601f820116820180604052508101906107109190613bfb565b610746576040517fb331e42100000000000000000000000000000000000000000000000000000000815260040160405180910390fd5b610200870135881580159061076057506101608801358911155b1561077f5761077c896102008a01356101608b01356001611c1e565b90505b6107b07f00000000000000000000000000000000000000000000000000000000000000008b838b8b8b8b8b8b611c69565b6001600160a01b037f00000000000000000000000000000000000000000000000000000000000000001663bc1178e66107ef60c08b0160a08c01613c16565b6108016101408c016101208d01613c16565b6040517fffffffff0000000000000000000000000000000000000000000000000000000060e085901b1681526108449291906101608e0135908890600401613c8d565b5f604051808303815f87803b15801561085b575f80fd5b505af115801561086d573d5f803e3d5ffd5b505050506108b4888b838c5f148061088957506101608c01358d115b610893578c61089a565b6101608c01355b898c8c60026108af60408e0160208f01613d61565b611e01565b6108c16040890189613d7f565b6040516108cf929190613de0565b6040519081900390207f0fce007c38c6c8ed9e545b3a148095762738618f8c21b673222613e4d45734b661090960a08b0160808c01613c16565b61091960c08c0160a08d01613c16565b61092b6101408d016101208e01613c16565b61093d6101e08e016101c08f01613c16565b8e158061094e57506101608e01358f115b610958578e61095f565b6101408e01355b6102008f013588146109715787610978565b6101e08f01355b8f60e001602081019061098b9190613c16565b604080516001600160a01b0398891681529688166020880152948716948601949094529185166060850152608084015260a083015290911660c082015260e00160405180910390a2506109dd60018055565b505050505050505050565b5f5b6109f48280613def565b9050811015610b065736610a088380613def565b83818110610a1857610a18613e53565b9050602002810190610a2a9190613e80565b90506001600160a01b03841663a8c4bc95610a486020840184613c16565b6040517fffffffff0000000000000000000000000000000000000000000000000000000060e084901b1681526001600160a01b039091166004820152602401602060405180830381865afa158015610aa2573d5f803e3d5ffd5b505050506040513d601f19601f82011682018060405250810190610ac69190613bfb565b15610afd576040517fc99e887200000000000000000000000000000000000000000000000000000000815260040160405180910390fd5b506001016109ea565b505f5b610b166020830183613def565b9050811015610c2b5736610b2d6020840184613def565b83818110610b3d57610b3d613e53565b9050602002810190610b4f9190613e80565b90506001600160a01b03841663a8c4bc95610b6d6020840184613c16565b6040517fffffffff0000000000000000000000000000000000000000000000000000000060e084901b1681526001600160a01b039091166004820152602401602060405180830381865afa158015610bc7573d5f803e3d5ffd5b505050506040513d601f19601f82011682018060405250810190610beb9190613bfb565b15610c22576040517fc99e887200000000000000000000000000000000000000000000000000000000815260040160405180910390fd5b50600101610b09565b505050565b5f7fae676bf6913ac2689b7331293c989fe7723124faf8b5d275f06fbcebc77950096105f56020840184613c16565b610c698482612212565b610c78858585856001806122c9565b5050505050565b610c89338261261e565b50565b610cbf6040518060c001604052805f81526020015f81526020015f81526020015f81526020015f81526020015f81525090565b5f5b828110156110535736848483818110610cdc57610cdc613e53565b9050602002810190610cee9190613e80565b9050365f610cff6040840184613d7f565b90925090506001600160a01b038b1663a8c4bc95610d206020860186613c16565b6040517fffffffff0000000000000000000000000000000000000000000000000000000060e084901b1681526001600160a01b039091166004820152602401602060405180830381865afa158015610d7a573d5f803e3d5ffd5b505050506040513d601f19601f82011682018060405250810190610d9e9190613bfb565b15611045575f8915610ddc576040517f7d617bb300000000000000000000000000000000000000000000000000000000815260040160405180910390fd5b60048210610de8575081355b7fc03a9de9000000000000000000000000000000000000000000000000000000007fffffffff00000000000000000000000000000000000000000000000000000000821601610e5657610e3d83838d8c6126c4565b86602001818151610e4e9190613ebc565b905250611043565b7f243a4b7f000000000000000000000000000000000000000000000000000000007fffffffff00000000000000000000000000000000000000000000000000000000821601610ebc57610eab83838d8c6127da565b86606001818151610e4e9190613ebc565b7f7dc4f458000000000000000000000000000000000000000000000000000000007fffffffff00000000000000000000000000000000000000000000000000000000821601610f4757610f1183838d8c61294e565b60a088015260808701819052606087018051610f2e908390613ebc565b90525060a0860151602087018051610e4e908390613ebc565b7f68931b6b000000000000000000000000000000000000000000000000000000007fffffffff00000000000000000000000000000000000000000000000000000000821601610fab57610f9c83838d8c612bb6565b86518790610e4e908390613ebc565b7f0c9be7e4000000000000000000000000000000000000000000000000000000007fffffffff000000000000000000000000000000000000000000000000000000008216016110115761100083838d8c612cc0565b86604001818151610e4e9190613ebc565b6040517f0561d8b300000000000000000000000000000000000000000000000000000000815260040160405180910390fd5b505b505050806001019050610cc1565b5061105e8482612e29565b50505050505050565b60036110766020830183613f21565b600381111561108757611087613ef4565b036110ec576001600160a01b0383166110ac836110a76040850185613d7f565b611b50565b6001600160a01b031614610c2b576040517fb81d58e700000000000000000000000000000000000000000000000000000000815260040160405180910390fd5b60016110fb6020830183613f21565b600381111561110c5761110c613ef4565b036111a0577f19457468657265756d205369676e6564204d6573736167653a0a3332000000005f908152601c839052603c90206001600160a01b03841661115a826110a76040860186613d7f565b6001600160a01b03161461119a576040517f644ae6c300000000000000000000000000000000000000000000000000000000815260040160405180910390fd5b50505050565b60026111af6020830183613f21565b60038111156111c0576111c0613ef4565b036112b9577f1626ba7e000000000000000000000000000000000000000000000000000000006001600160a01b038416631626ba7e846112036040860186613d7f565b6040518463ffffffff1660e01b815260040161122193929190613f3f565b602060405180830381865afa15801561123c573d5f803e3d5ffd5b505050506040513d601f19601f820116820180604052508101906112609190613f58565b7fffffffff000000000000000000000000000000000000000000000000000000001614610c2b576040517f5d52cbe300000000000000000000000000000000000000000000000000000000815260040160405180910390fd5b6040517f60cd402d00000000000000000000000000000000000000000000000000000000815260040160405180910390fd5b5f6112f46104d7565b7fd28e809b708f5ee38be8347d6d869d8232493c094ab2dde98369e4102369a99d61131f8480613d7f565b604051602001611330929190613f97565b60405160208183030381529060405280519060200120846020013585604001602081019061135e9190613c16565b60408051602081019590955284019290925260608301526001600160a01b0316608082015260a001604080517fffffffffffffffffffffffffffffffffffffffffffffffffffffffffffffffe08184030181529190526113c46080850160608601613c16565b6113d460a0860160808701613c16565b6113e460c0870160a08801613c16565b60c087013560e08801356101008901356101208a013561140c6101608c016101408d01613c16565b604080516001600160a01b03998a166020820152978916908801529487166060870152608086019390935260a085019190915260c084015260e083015290911661010082015261012001604080517fffffffffffffffffffffffffffffffffffffffffffffffffffffffffffffffe0818403018152908290526114929291602001613fd7565b6040516020818303038152906040528051906020012060405160200161064a9291907f190100000000000000000000000000000000000000000000000000000000000081526002810192909252602282015260420190565b6114f2611bdb565b6040517f02cc250d0000000000000000000000000000000000000000000000000000000081523360048201527f00000000000000000000000000000000000000000000000000000000000000006001600160a01b0316906302cc250d90602401602060405180830381865afa15801561156d573d5f803e3d5ffd5b505050506040513d601f19601f820116820180604052508101906115919190613bfb565b6115c7576040517fc139eabd00000000000000000000000000000000000000000000000000000000815260040160405180910390fd5b6040517fe75600c30000000000000000000000000000000000000000000000000000000081526001600160a01b0389811660048301527f0000000000000000000000000000000000000000000000000000000000000000169063e75600c390602401602060405180830381865afa158015611644573d5f803e3d5ffd5b505050506040513d601f19601f820116820180604052508101906116689190613bfb565b61169e576040517fb331e42100000000000000000000000000000000000000000000000000000000815260040160405180910390fd5b61020086013587158015906116b857506101608701358811155b156116d7576116d4886102008901356101608a01356001611c1e565b90505b6117087f00000000000000000000000000000000000000000000000000000000000000008a838a8a8a8a8a8a611c69565b611745878a838b158061171f57506101608b01358c115b611729578b611730565b6101608b01355b888b8b60016108af60408d0160208e01613d61565b6117526040880188613d7f565b604051611760929190613de0565b6040519081900390207f0fce007c38c6c8ed9e545b3a148095762738618f8c21b673222613e4d45734b661179a60a08a0160808b01613c16565b6117aa60c08b0160a08c01613c16565b6117bc6101408c016101208d01613c16565b6117ce6101e08d016101c08e01613c16565b8d15806117df57506101608d01358e115b6117e9578d6117f0565b6101408d01355b6102008e013588146118025787611809565b6101e08e01355b8e60e001602081019061181c9190613c16565b604080516001600160a01b0398891681529688166020880152948716948601949094529185166060850152608084015260a083015290911660c082015260e00160405180910390a25061186e60018055565b5050505050505050565b6118828583612212565b6001600160a01b037f00000000000000000000000000000000000000000000000000000000000000001663bc1178e66118c16080880160608901613c16565b6118d160a0890160808a01613c16565b8860c00135856040518563ffffffff1660e01b81526004016118f69493929190613c8d565b5f604051808303815f87803b15801561190d575f80fd5b505af115801561191f573d5f803e3d5ffd5b5050505061194486868686600289602001602081019061193f9190613d61565b6122c9565b505050505050565b5f6119556104d7565b7fc994d2ca0375d6d473785e0ce0b1d203f069121bac1314f72c5c0fe601eb39106119836040850185613d7f565b604051602001611994929190613f97565b604080517fffffffffffffffffffffffffffffffffffffffffffffffffffffffffffffffe0818403018152919052805160209091012060608501356119df60a0870160808801613c16565b6119ef60c0880160a08901613c16565b60c0880135611a056101008a0160e08b01613c16565b60408051602081019890985287019590955260608601939093526001600160a01b039182166080860152811660a085015260c08401919091521660e0820152610100808501359082015261012001604051602081830303815290604052611a6f8461012001610c30565b611a7c856101c0016105c6565b60405160200161149293929190613feb565b6101a0810135611aa8610180830135610160840135613ebc565b611ab29190613ebc565b61014082013514611aef576040517fc04377d300000000000000000000000000000000000000000000000000000000815260040160405180910390fd5b610240810135611b09610220830135610200840135613ebc565b611b139190613ebc565b6101e082013514610c89576040517f877630be00000000000000000000000000000000000000000000000000000000815260040160405180910390fd5b5f80611b918585858080601f0160208091040260200160405190810160405280939291908181526020018383808284375f92019190915250612ed692505050565b90506001600160a01b038116611bd3576040517f815e1d6400000000000000000000000000000000000000000000000000000000815260040160405180910390fd5b949350505050565b600260015403611c17576040517f3ee5aeb500000000000000000000000000000000000000000000000000000000815260040160405180910390fd5b6002600155565b5f611c4b611c2b83612f00565b8015611c4657505f8480611c4157611c41614008565b868809115b151590565b611c56868686612f2c565b611c609190613ebc565b95945050505050565b5f611c738761194c565b9050611c80898285611067565b611c9060c0880160a08901613c16565b6001600160a01b0316336001600160a01b031614611cc757611cc2611cbb60c0890160a08a01613c16565b8284611067565b611d0e565b611cd46040830183613d7f565b90505f03611d0e576040517f0e364efc00000000000000000000000000000000000000000000000000000000815260040160405180910390fd5b611d2b611d2160c0890160a08a01613c16565b886060013561261e565b8660c00135421115611d69576040517f133df02900000000000000000000000000000000000000000000000000000000815260040160405180910390fd5b5f88118015611d7c575086610100013588105b15611db3576040517f9469744400000000000000000000000000000000000000000000000000000000815260040160405180910390fd5b611dbc87611a8e565b611dc68a856109e8565b611de78a8a5f8b118015611ddf57506102008a01358b14155b8a8a8a610c8c565b611df589886060013561261e565b50505050505050505050565b611e13611e0e8680613def565b613001565b5f611e286101808b01356101a08c0135613ebc565b90507f00000000000000000000000000000000000000000000000000000000000000006001600160a01b031663b519d3696040518060a001604052808d60a0016020810190611e779190613c16565b6001600160a01b03168152602001306001600160a01b031681526020018d610120015f016020810190611eaa9190613c16565b6001600160a01b03168152602001848152602001866002811115611ed057611ed0613ef4565b8152506040518263ffffffff1660e01b8152600401611eef9190614035565b5f604051808303815f87803b158015611f06575f80fd5b505af1158015611f18573d5f803e3d5ffd5b505050507f00000000000000000000000000000000000000000000000000000000000000006001600160a01b031663b519d3696040518060a001604052808d60a0016020810190611f699190613c16565b6001600160a01b031681526020018d60e0016020810190611f8a9190613c16565b6001600160a01b031681526020018d610120015f016020810190611fae9190613c16565b6001600160a01b031681526020018a8152602001866002811115611fd457611fd4613ef4565b8152506040518263ffffffff1660e01b8152600401611ff39190614035565b5f604051808303815f87803b15801561200a575f80fd5b505af115801561201c573d5f803e3d5ffd5b5050505061202a8585613001565b7f00000000000000000000000000000000000000000000000000000000000000006001600160a01b031663b519d3696040518060a001604052808c6001600160a01b031681526020018d60800160208101906120869190613c16565b6001600160a01b031681526020018d6101c0015f0160208101906120aa9190613c16565b6001600160a01b031681526020018b81526020018560028111156120d0576120d0613ef4565b8152506040518263ffffffff1660e01b81526004016120ef9190614035565b5f604051808303815f87803b158015612106575f80fd5b505af1158015612118573d5f803e3d5ffd5b5061212e9250611e0e9150506020880188613def565b5f6121416101408c016101208d01613c16565b6040517f70a082310000000000000000000000000000000000000000000000000000000081523060048201526001600160a01b0391909116906370a0823190602401602060405180830381865afa15801561219e573d5f803e3d5ffd5b505050506040513d601f19601f820116820180604052508101906121c291906140b4565b90508015612205576122056121de6101008d0160e08e01613c16565b828d610120015f0160208101906121f59190613c16565b6001600160a01b03169190613139565b5050505050505050505050565b6122226080830160608401613c16565b6001600160a01b0316336001600160a01b0316146122615761225c61224d6080840160608501613c16565b612256846112eb565b83611067565b6122a8565b61226e6040820182613d7f565b90505f036122a8576040517f0e364efc00000000000000000000000000000000000000000000000000000000815260040160405180910390fd5b6122c56122bb6080840160608501613c16565b836020013561261e565b5050565b60e085013583158015906122e057508560c0013584105b156122fd576122fa848760e001358860c001356001611c1e565b90505b612309878288886131b9565b7f00000000000000000000000000000000000000000000000000000000000000006001600160a01b031663b519d3696040518060a001604052808960600160208101906123569190613c16565b6001600160a01b031681526020016123766101608b016101408c01613c16565b6001600160a01b0316815260200161239460a08b0160808c01613c16565b6001600160a01b031681526020018715806123b257508960c0013588115b6123bc57876123c2565b8960c001355b81526020018660028111156123d9576123d9613ef4565b8152506040518263ffffffff1660e01b81526004016123f89190614035565b5f604051808303815f87803b15801561240f575f80fd5b505af1158015612421573d5f803e3d5ffd5b505050507f00000000000000000000000000000000000000000000000000000000000000006001600160a01b031663b519d3696040518060a001604052808a6001600160a01b031681526020018960400160208101906124819190613c16565b6001600160a01b0316815260200161249f60c08b0160a08c01613c16565b6001600160a01b031681526020018481526020018560028111156124c5576124c5613ef4565b8152506040518263ffffffff1660e01b81526004016124e49190614035565b5f604051808303815f87803b1580156124fb575f80fd5b505af115801561250d573d5f803e3d5ffd5b5061251e9250889150819050613d7f565b60405161252c929190613de0565b60405180910390207f0fce007c38c6c8ed9e545b3a148095762738618f8c21b673222613e4d45734b68760400160208101906125689190613c16565b61257860808a0160608b01613c16565b61258860a08b0160808c01613c16565b61259860c08c0160a08d01613c16565b8915806125a857508b60c001358a115b6125b257896125b8565b8b60c001355b878d6101400160208101906125cd9190613c16565b604080516001600160a01b0398891681529688166020880152948716948601949094529185166060850152608084015260a083015290911660c082015260e00160405180910390a250505050505050565b6001600160a01b0382165f9081526020818152604080832084845290915290205460ff1615612679576040517fbc0da7d600000000000000000000000000000000000000000000000000000000815260040160405180910390fd5b6001600160a01b039091165f908152602081815260408083209383529290522080547fffffffffffffffffffffffffffffffffffffffffffffffffffffffffffffff00166001179055565b5f8080806126d5876004818b6140cb565b8101906126e291906140f2565b50919450925090506126fc61014086016101208701613c16565b6001600160a01b0316836001600160a01b031614612746576040517fc891add200000000000000000000000000000000000000000000000000000000815260040160405180910390fd5b816001600160a01b0316866001600160a01b031614612791576040517f815e1d6400000000000000000000000000000000000000000000000000000000815260040160405180910390fd5b6101a085013581146127cf576040517f2c5211c600000000000000000000000000000000000000000000000000000000815260040160405180910390fd5b979650505050505050565b5f808080806127ec886004818c6140cb565b8101906127f99190614142565b929650909450925090506128156101e087016101c08801613c16565b6001600160a01b0316846001600160a01b03161461285f576040517fc891add200000000000000000000000000000000000000000000000000000000815260040160405180910390fd5b826001600160a01b0316876001600160a01b0316146128aa576040517f815e1d6400000000000000000000000000000000000000000000000000000000815260040160405180910390fd5b6128ba60a0870160808801613c16565b6001600160a01b0316826001600160a01b031614612904576040517fac6b05f500000000000000000000000000000000000000000000000000000000815260040160405180910390fd5b6102408601358114612942576040517f2c5211c600000000000000000000000000000000000000000000000000000000815260040160405180910390fd5b98975050505050505050565b5f805f805f805f805f8c8c600490809261296a939291906140cb565b8101906129779190614190565b959c50939a50919850965094509250905061299a6101e08b016101c08c01613c16565b6001600160a01b0316876001600160a01b0316146129e4576040517fc891add200000000000000000000000000000000000000000000000000000000815260040160405180910390fd5b856001600160a01b03168b6001600160a01b031614612a2f576040517f815e1d6400000000000000000000000000000000000000000000000000000000815260040160405180910390fd5b6001600160a01b0385163014612a71576040517f8154374b00000000000000000000000000000000000000000000000000000000815260040160405180910390fd5b612a8160a08b0160808c01613c16565b6001600160a01b0316846001600160a01b031614612acb576040517fac6b05f500000000000000000000000000000000000000000000000000000000815260040160405180910390fd5b6102408a01358314612b09576040517f2c5211c600000000000000000000000000000000000000000000000000000000815260040160405180910390fd5b612b1b6101408b016101208c01613c16565b6001600160a01b0316826001600160a01b031614612b65576040517fc891add200000000000000000000000000000000000000000000000000000000815260040160405180910390fd5b6101a08a01358114612ba3576040517f2c5211c600000000000000000000000000000000000000000000000000000000815260040160405180910390fd5b919c919b50909950505050505050505050565b5f808080612bc7876004818b6140cb565b810190612bd4919061420f565b91945092509050612bed61014086016101208701613c16565b6001600160a01b0316836001600160a01b031614612c37576040517fc891add200000000000000000000000000000000000000000000000000000000815260040160405180910390fd5b816001600160a01b0316866001600160a01b031614612c82576040517f815e1d6400000000000000000000000000000000000000000000000000000000815260040160405180910390fd5b61018085013581146127cf576040517f2c5211c600000000000000000000000000000000000000000000000000000000815260040160405180910390fd5b5f80808080612cd2886004818c6140cb565b810190612cdf919061424d565b5092965090945092509050612cfc6101e087016101c08801613c16565b6001600160a01b0316846001600160a01b031614612d46576040517fc891add200000000000000000000000000000000000000000000000000000000815260040160405180910390fd5b826001600160a01b0316876001600160a01b031614612d91576040517f815e1d6400000000000000000000000000000000000000000000000000000000815260040160405180910390fd5b612da160a0870160808801613c16565b6001600160a01b0316826001600160a01b031614612deb576040517fac6b05f500000000000000000000000000000000000000000000000000000000815260040160405180910390fd5b6102208601358114612942576040517f2c5211c600000000000000000000000000000000000000000000000000000000815260040160405180910390fd5b8051610180830135141580612e47575060208101516101a083013514155b15612e7e576040517f4a55da2000000000000000000000000000000000000000000000000000000000815260040160405180910390fd5b6040810151610220830135141580612e9f5750606081015161024083013514155b156122c5576040517f77a5920300000000000000000000000000000000000000000000000000000000815260040160405180910390fd5b5f805f80612ee4868661325c565b925092509250612ef482826132a5565b50909150505b92915050565b5f6002826003811115612f1557612f15613ef4565b612f1f91906142b1565b60ff166001149050919050565b5f838302817fffffffffffffffffffffffffffffffffffffffffffffffffffffffffffffffff85870982811083820303915050805f03612f7f57838281612f7557612f75614008565b04925050506104d0565b808411612f9657612f9660038515026011186133ad565b5f848688095f868103871696879004966002600389028118808a02820302808a02820302808a02820302808a02820302808a02820302808a02909103029181900381900460010186841190950394909402919094039290920491909117919091029150509392505050565b5f5b81811015610c2b573683838381811061301e5761301e613e53565b90506020028101906130309190613e80565b90506001600160a01b037f0000000000000000000000000000000000000000000000000000000000000000166130696020830183613c16565b6001600160a01b0316036130a9576040517f79a1bff000000000000000000000000000000000000000000000000000000000815260040160405180910390fd5b6130b2816133be565b6130bf6020820182613c16565b6001600160a01b03167fed99827efb37016f2275f98c4bcf71c7551c75d59e9b450f79fa32e60be672c282602001356130f784613401565b604080519283527fffffffff0000000000000000000000000000000000000000000000000000000090911660208301520160405180910390a250600101613003565b604080516001600160a01b038416602482015260448082018490528251808303909101815260649091019091526020810180517bffffffffffffffffffffffffffffffffffffffffffffffffffffffff167fa9059cbb00000000000000000000000000000000000000000000000000000000179052610c2b90849061342a565b5f831180156131cc575081610100013583105b15613203576040517f9469744400000000000000000000000000000000000000000000000000000000815260040160405180910390fd5b61321084612256846112eb565b61321e84836020013561261e565b428261012001351161119a576040517fc56873ba00000000000000000000000000000000000000000000000000000000815260040160405180910390fd5b5f805f8351604103613293576020840151604085015160608601515f1a613285888285856134af565b95509550955050505061329e565b505081515f91506002905b9250925092565b5f8260038111156132b8576132b8613ef4565b036132c1575050565b60018260038111156132d5576132d5613ef4565b0361330c576040517ff645eedf00000000000000000000000000000000000000000000000000000000815260040160405180910390fd5b600282600381111561332057613320613ef4565b0361335f576040517ffce698f7000000000000000000000000000000000000000000000000000000008152600481018290526024015b60405180910390fd5b600382600381111561337357613373613ef4565b036122c5576040517fd78bce0c00000000000000000000000000000000000000000000000000000000815260048101829052602401613356565b634e487b715f52806020526024601cfd5b5f6133cc6020830183613c16565b90506020820135365f6133e26040860186613d7f565b91509150604051818382375f80838387895af1611944573d5f803e3d5ffd5b5f36816134116040850185613d7f565b90925090506004811061342357813592505b5050919050565b5f8060205f8451602086015f885af180613449576040513d5f823e3d81fd5b50505f513d9150811561346057806001141561346d565b6001600160a01b0384163b155b1561119a576040517f5274afe70000000000000000000000000000000000000000000000000000000081526001600160a01b0385166004820152602401613356565b5f80807f7fffffffffffffffffffffffffffffff5d576e7357a4501ddfe92f46681b20a08411156134e857505f9150600390508261358b565b604080515f808252602082018084528a905260ff891692820192909252606081018790526080810186905260019060a0016020604051602081039080840390855afa158015613539573d5f803e3d5ffd5b50506040517fffffffffffffffffffffffffffffffffffffffffffffffffffffffffffffffe001519150506001600160a01b03811661358257505f92506001915082905061358b565b92505f91508190505b9450945094915050565b5f805f604084860312156135a7575f80fd5b83359250602084013567ffffffffffffffff808211156135c5575f80fd5b818601915086601f8301126135d8575f80fd5b8135818111156135e6575f80fd5b8760208285010111156135f7575f80fd5b6020830194508093505050509250925092565b5f60a0828403121561361a575f80fd5b50919050565b5f60a08284031215613630575f80fd5b6104d0838361360a565b6001600160a01b0381168114610c89575f80fd5b80356136598161363a565b919050565b5f610260828403121561361a575f80fd5b5f8083601f84011261367f575f80fd5b50813567ffffffffffffffff811115613696575f80fd5b6020830191508360208260051b85010111156136b0575f80fd5b9250929050565b5f6040828403121561361a575f80fd5b5f6060828403121561361a575f80fd5b5f805f805f805f805f6101008a8c0312156136f0575f80fd5b6136f98a61364e565b985060208a0135975060408a013567ffffffffffffffff8082111561371c575f80fd5b6137288d838e0161365e565b985060608c013591508082111561373d575f80fd5b6137498d838e0161366f565b909850965060808c0135915080821115613761575f80fd5b61376d8d838e016136b7565b955060a08c0135915080821115613782575f80fd5b61378e8d838e016136c7565b945060c08c01359150808211156137a3575f80fd5b6137af8d838e016136c7565b935060e08c01359150808211156137c4575f80fd5b506137d18c828d016136c7565b9150509295985092959850929598565b5f80604083850312156137f2575f80fd5b82356137fd8161363a565b9150602083013567ffffffffffffffff811115613818575f80fd5b613824858286016136b7565b9150509250929050565b5f610160828403121561361a575f80fd5b5f805f805f60a08688031215613853575f80fd5b853561385e8161363a565b9450602086013567ffffffffffffffff8082111561387a575f80fd5b61388689838a0161382e565b9550604088013591508082111561389b575f80fd5b6138a789838a016136c7565b94506060880135935060808801359150808211156138c3575f80fd5b506138d0888289016136c7565b9150509295509295909350565b5f602082840312156138ed575f80fd5b5035919050565b8015158114610c89575f80fd5b5f805f805f8060a08789031215613916575f80fd5b86356139218161363a565b955060208701356139318161363a565b94506040870135613941816138f4565b9350606087013567ffffffffffffffff8082111561395d575f80fd5b6139698a838b0161365e565b9450608089013591508082111561397e575f80fd5b5061398b89828a0161366f565b979a9699509497509295939492505050565b5f805f606084860312156139af575f80fd5b83356139ba8161363a565b925060208401359150604084013567ffffffffffffffff8111156139dc575f80fd5b6139e8868287016136c7565b9150509250925092565b5f60208284031215613a02575f80fd5b813567ffffffffffffffff811115613a18575f80fd5b611bd38482850161382e565b5f805f805f805f8060e0898b031215613a3b575f80fd5b613a448961364e565b975060208901359650604089013567ffffffffffffffff80821115613a67575f80fd5b613a738c838d0161365e565b975060608b0135915080821115613a88575f80fd5b613a948c838d0161366f565b909750955060808b0135915080821115613aac575f80fd5b613ab88c838d016136b7565b945060a08b0135915080821115613acd575f80fd5b613ad98c838d016136c7565b935060c08b0135915080821115613aee575f80fd5b50613afb8b828c016136c7565b9150509295985092959890939650565b5f805f805f8060c08789031215613b20575f80fd5b613b298761364e565b9550602087013567ffffffffffffffff80821115613b45575f80fd5b613b518a838b0161382e565b96506040890135915080821115613b66575f80fd5b613b728a838b016136c7565b9550606089013594506080890135915080821115613b8e575f80fd5b613b9a8a838b016136c7565b935060a0890135915080821115613baf575f80fd5b50613bbc89828a016136c7565b9150509295509295509295565b5f60208284031215613bd9575f80fd5b813567ffffffffffffffff811115613bef575f80fd5b611bd38482850161365e565b5f60208284031215613c0b575f80fd5b81516104d0816138f4565b5f60208284031215613c26575f80fd5b81356104d08161363a565b81835281816020850137505f602082840101525f60207fffffffffffffffffffffffffffffffffffffffffffffffffffffffffffffffe0601f840116840101905092915050565b803565ffffffffffff81168114613659575f80fd5b5f6001600160a01b0380871683528086166020840152508360408301526080606083015282357fffffffffffffffffffffffffffffffffffffffffffffffffffffffffffffffe1843603018112613ce2575f80fd5b830160208101903567ffffffffffffffff811115613cfe575f80fd5b803603821315613d0c575f80fd5b60606080850152613d2160e085018284613c31565b915050613d3060208501613c78565b65ffffffffffff80821660a086015280613d4c60408801613c78565b1660c086015250508091505095945050505050565b5f60208284031215613d71575f80fd5b8135600381106104d0575f80fd5b5f8083357fffffffffffffffffffffffffffffffffffffffffffffffffffffffffffffffe1843603018112613db2575f80fd5b83018035915067ffffffffffffffff821115613dcc575f80fd5b6020019150368190038213156136b0575f80fd5b818382375f9101908152919050565b5f8083357fffffffffffffffffffffffffffffffffffffffffffffffffffffffffffffffe1843603018112613e22575f80fd5b83018035915067ffffffffffffffff821115613e3c575f80fd5b6020019150600581901b36038213156136b0575f80fd5b7f4e487b71000000000000000000000000000000000000000000000000000000005f52603260045260245ffd5b5f82357fffffffffffffffffffffffffffffffffffffffffffffffffffffffffffffffa1833603018112613eb2575f80fd5b9190910192915050565b80820180821115612efa577f4e487b71000000000000000000000000000000000000000000000000000000005f52601160045260245ffd5b7f4e487b71000000000000000000000000000000000000000000000000000000005f52602160045260245ffd5b5f60208284031215613f31575f80fd5b8135600481106104d0575f80fd5b838152604060208201525f611c60604083018486613c31565b5f60208284031215613f68575f80fd5b81517fffffffff00000000000000000000000000000000000000000000000000000000811681146104d0575f80fd5b602081525f611bd3602083018486613c31565b5f81515f5b81811015613fc95760208185018101518683015201613faf565b505f93019283525090919050565b5f611bd3613fe58386613faa565b84613faa565b5f613ff68286613faa565b93845250506020820152604001919050565b7f4e487b71000000000000000000000000000000000000000000000000000000005f52601260045260245ffd5b5f60a0820190506001600160a01b0380845116835280602085015116602084015280604085015116604084015250606083015160608301526080830151600381106140a7577f4e487b71000000000000000000000000000000000000000000000000000000005f52602160045260245ffd5b8060808401525092915050565b5f602082840312156140c4575f80fd5b5051919050565b5f80858511156140d9575f80fd5b838611156140e5575f80fd5b5050820193919092039150565b5f805f8060808587031215614105575f80fd5b84356141108161363a565b935060208501356141208161363a565b9250604085013591506060850135614137816138f4565b939692955090935050565b5f805f8060808587031215614155575f80fd5b84356141608161363a565b935060208501356141708161363a565b925060408501356141808161363a565b9396929550929360600135925050565b5f805f805f805f60e0888a0312156141a6575f80fd5b87356141b18161363a565b965060208801356141c18161363a565b955060408801356141d18161363a565b945060608801356141e18161363a565b93506080880135925060a08801356141f88161363a565b8092505060c0880135905092959891949750929550565b5f805f60608486031215614221575f80fd5b833561422c8161363a565b9250602084013561423c8161363a565b929592945050506040919091013590565b5f805f805f60a08688031215614261575f80fd5b853561426c8161363a565b9450602086013561427c8161363a565b9350604086013561428c8161363a565b92506060860135915060808601356142a3816138f4565b809150509295509295909350565b5f60ff8316806142e8577f4e487b71000000000000000000000000000000000000000000000000000000005f52601260045260245ffd5b8060ff8416069150509291505056fea26469706673582212209be58acada353061a2a202cc7011f3c91393e0f2e305e9202445b042fc4a4ce664736f6c6343000817003360c060405234801561000f575f80fd5b5060405161096338038061096383398101604081905261002e91610060565b6001600160a01b039182166080521660a052610091565b80516001600160a01b038116811461005b575f80fd5b919050565b5f8060408385031215610071575f80fd5b61007a83610045565b915061008860208401610045565b90509250929050565b60805160a05161089e6100c55f395f81816048015281816101f2015261038101525f818160d30152610327015261089e5ff3fe608060405234801561000f575f80fd5b506004361061003f575f3560e01c80636afdd85014610043578063b519d36914610093578063bc1178e6146100a8575b5f80fd5b61006a7f000000000000000000000000000000000000000000000000000000000000000081565b60405173ffffffffffffffffffffffffffffffffffffffff909116815260200160405180910390f35b6100a66100a136600461060a565b6100bb565b005b6100a66100b6366004610648565b61030f565b3373ffffffffffffffffffffffffffffffffffffffff7f000000000000000000000000000000000000000000000000000000000000000016811461012b576040517f7c214f0400000000000000000000000000000000000000000000000000000000815260040160405180910390fd5b6060820135156101af57600161014760a08401608085016106dd565b6002811115610158576101586106b0565b036101b3576101af61016d6020840184610702565b61017d6040850160208601610702565b606085018035906101919060408801610702565b73ffffffffffffffffffffffffffffffffffffffff169291906104cc565b5050565b60026101c560a08401608085016106dd565b60028111156101d6576101d66106b0565b036102dd5773ffffffffffffffffffffffffffffffffffffffff7f0000000000000000000000000000000000000000000000000000000000000000166336c785166102246020850185610702565b6102346040860160208701610702565b606086018035906102489060408901610702565b60405160e086901b7fffffffff0000000000000000000000000000000000000000000000000000000016815273ffffffffffffffffffffffffffffffffffffffff94851660048201529284166024840152908316604483015290911660648201526084015f604051808303815f87803b1580156102c3575f80fd5b505af11580156102d5573d5f803e3d5ffd5b505050505050565b6040517fc79aaa4400000000000000000000000000000000000000000000000000000000815260040160405180910390fd5b3373ffffffffffffffffffffffffffffffffffffffff7f000000000000000000000000000000000000000000000000000000000000000016811461037f576040517f7c214f0400000000000000000000000000000000000000000000000000000000815260040160405180910390fd5b7f000000000000000000000000000000000000000000000000000000000000000073ffffffffffffffffffffffffffffffffffffffff16632b67b57086604051806060016040528060405180608001604052808a73ffffffffffffffffffffffffffffffffffffffff1681526020018973ffffffffffffffffffffffffffffffffffffffff16815260200188604001602081019061041d919061071b565b65ffffffffffff16815260200188602001602081019061043d919061071b565b65ffffffffffff1690528152306020820152604090810190610465906060890190890161071b565b65ffffffffffff1690526104798680610740565b6040518563ffffffff1660e01b815260040161049894939291906107a8565b5f604051808303815f87803b1580156104af575f80fd5b505af11580156104c1573d5f803e3d5ffd5b505050505050505050565b6040805173ffffffffffffffffffffffffffffffffffffffff85811660248301528416604482015260648082018490528251808303909101815260849091019091526020810180517bffffffffffffffffffffffffffffffffffffffffffffffffffffffff167f23b872dd00000000000000000000000000000000000000000000000000000000179052610561908590610567565b50505050565b5f8060205f8451602086015f885af180610586576040513d5f823e3d81fd5b50505f513d9150811561059d5780600114156105b7565b73ffffffffffffffffffffffffffffffffffffffff84163b155b15610561576040517f5274afe700000000000000000000000000000000000000000000000000000000815273ffffffffffffffffffffffffffffffffffffffff8516600482015260240160405180910390fd5b5f60a0828403121561061a575f80fd5b50919050565b803573ffffffffffffffffffffffffffffffffffffffff81168114610643575f80fd5b919050565b5f805f806080858703121561065b575f80fd5b61066485610620565b935061067260208601610620565b925060408501359150606085013567ffffffffffffffff811115610694575f80fd5b8501606081880312156106a5575f80fd5b939692955090935050565b7f4e487b71000000000000000000000000000000000000000000000000000000005f52602160045260245ffd5b5f602082840312156106ed575f80fd5b8135600381106106fb575f80fd5b9392505050565b5f60208284031215610712575f80fd5b6106fb82610620565b5f6020828403121561072b575f80fd5b813565ffffffffffff811681146106fb575f80fd5b5f8083357fffffffffffffffffffffffffffffffffffffffffffffffffffffffffffffffe1843603018112610773575f80fd5b83018035915067ffffffffffffffff82111561078d575f80fd5b6020019150368190038213156107a1575f80fd5b9250929050565b5f61010073ffffffffffffffffffffffffffffffffffffffff80881684528651818151166020860152816020820151166040860152604081015165ffffffffffff80821660608801528060608401511660808801525050508060208801511660a085015250604086015160c08401528060e08401528381840152506101208385828501375f838501820152601f9093017fffffffffffffffffffffffffffffffffffffffffffffffffffffffffffffffe01690910190910194935050505056fea2646970667358221220f3565f6589500276fcbb6fb33d3ee3b534d9566c5b2732fe10a6039b753c3a0764736f6c63430008170033",
        "linkReferences": {}
    },
    "methodIdentifiers": {
        "AUTHENTICATOR()": "c6186181",
        "BALANCE_MANAGER()": "29bcdc95",
        "DOMAIN_SEPARATOR()": "3644e515",
        "REPOSITORY()": "6f35d2d2",
        "cancelLimitOrder(uint256)": "a5cdc8fc",
        "hashBaseTokenData((address,uint256,uint256,uint256,uint256))": "875530ff",
        "hashOrder((address,uint256,string,uint256,address,address,uint256,address,uint256,(address,uint256,uint256,uint256,uint256),(address,uint256,uint256,uint256,uint256)))": "e242924e",
        "hashQuoteTokenData((address,uint256,uint256,uint256,uint256))": "4c9e03d3",
        "hashSingleOrder((string,uint256,address,address,address,address,uint256,uint256,uint256,uint256,address))": "b11f1262",
        "isValidSignature(bytes32,bytes)": "1626ba7e",
        "settle(address,uint256,(address,uint256,string,uint256,address,address,uint256,address,uint256,(address,uint256,uint256,uint256,uint256),(address,uint256,uint256,uint256,uint256)),(address,uint256,bytes)[],((address,uint256,bytes)[],(address,uint256,bytes)[]),(uint8,uint8,bytes),(uint8,uint8,bytes))": "cba673a7",
        "settleSingle(address,(string,uint256,address,address,address,address,uint256,uint256,uint256,uint256,address),(uint8,uint8,bytes),uint256,(uint8,uint8,bytes))": "9935c868",
        "settleSingleWithPermitsSignatures(address,(string,uint256,address,address,address,address,uint256,uint256,uint256,uint256,address),(uint8,uint8,bytes),uint256,(uint8,uint8,bytes),(bytes,uint48,uint48))": "db587728",
        "settleWithPermitsSignatures(address,uint256,(address,uint256,string,uint256,address,address,uint256,address,uint256,(address,uint256,uint256,uint256,uint256),(address,uint256,uint256,uint256,uint256)),(address,uint256,bytes)[],((address,uint256,bytes)[],(address,uint256,bytes)[]),(uint8,uint8,bytes),(uint8,uint8,bytes),(bytes,uint48,uint48))": "51d46815",
        "validateHooks(address,((address,uint256,bytes)[],(address,uint256,bytes)[]))": "5aa0e95d",
        "validateInteractions(address,address,bool,(address,uint256,string,uint256,address,address,uint256,address,uint256,(address,uint256,uint256,uint256,uint256),(address,uint256,uint256,uint256,uint256)),(address,uint256,bytes)[])": "a7ab49bc",
        "validateOrderAmounts((address,uint256,string,uint256,address,address,uint256,address,uint256,(address,uint256,uint256,uint256,uint256),(address,uint256,uint256,uint256,uint256)))": "fa5cd56c",
        "validateSignature(address,bytes32,(uint8,uint8,bytes))": "ae80c584"
    },
    "id": 90
}