{
  "abi": [
    {
      "type": "constructor",
      "inputs": [
        {
          "name": "authenticator_",
          "type": "address",
          "internalType": "contract GPv2Authentication"
        },
        {
          "name": "vault_",
          "type": "address",
          "internalType": "contract IVault"
        }
      ],
      "stateMutability": "nonpayable"
    },
    {
      "type": "receive",
      "stateMutability": "payable"
    },
    {
      "type": "function",
      "name": "authenticator",
      "inputs": [],
      "outputs": [
        {
          "name": "",
          "type": "address",
          "internalType": "contract GPv2Authentication"
        }
      ],
      "stateMutability": "view"
    },
    {
      "type": "function",
      "name": "domainSeparator",
      "inputs": [],
      "outputs": [
        {
          "name": "",
          "type": "bytes32",
          "internalType": "bytes32"
        }
      ],
      "stateMutability": "view"
    },
    {
      "type": "function",
      "name": "filledAmount",
      "inputs": [
        {
          "name": "",
          "type": "bytes",
          "internalType": "bytes"
        }
      ],
      "outputs": [
        {
          "name": "",
          "type": "uint256",
          "internalType": "uint256"
        }
      ],
      "stateMutability": "view"
    },
    {
      "type": "function",
      "name": "freeFilledAmountStorage",
      "inputs": [
        {
          "name": "orderUids",
          "type": "bytes[]",
          "internalType": "bytes[]"
        }
      ],
      "outputs": [],
      "stateMutability": "nonpayable"
    },
    {
      "type": "function",
      "name": "freePreSignatureStorage",
      "inputs": [
        {
          "name": "orderUids",
          "type": "bytes[]",
          "internalType": "bytes[]"
        }
      ],
      "outputs": [],
      "stateMutability": "nonpayable"
    },
    {
      "type": "function",
      "name": "getStorageAt",
      "inputs": [
        {
          "name": "offset",
          "type": "uint256",
          "internalType": "uint256"
        },
        {
          "name": "length",
          "type": "uint256",
          "internalType": "uint256"
        }
      ],
      "outputs": [
        {
          "name": "",
          "type": "bytes",
          "internalType": "bytes"
        }
      ],
      "stateMutability": "view"
    },
    {
      "type": "function",
      "name": "invalidateOrder",
      "inputs": [
        {
          "name": "orderUid",
          "type": "bytes",
          "internalType": "bytes"
        }
      ],
      "outputs": [],
      "stateMutability": "nonpayable"
    },
    {
      "type": "function",
      "name": "preSignature",
      "inputs": [
        {
          "name": "",
          "type": "bytes",
          "internalType": "bytes"
        }
      ],
      "outputs": [
        {
          "name": "",
          "type": "uint256",
          "internalType": "uint256"
        }
      ],
      "stateMutability": "view"
    },
    {
      "type": "function",
      "name": "setPreSignature",
      "inputs": [
        {
          "name": "orderUid",
          "type": "bytes",
          "internalType": "bytes"
        },
        {
          "name": "signed",
          "type": "bool",
          "internalType": "bool"
        }
      ],
      "outputs": [],
      "stateMutability": "nonpayable"
    },
    {
      "type": "function",
      "name": "settle",
      "inputs": [
        {
          "name": "tokens",
          "type": "address[]",
          "internalType": "contract IERC20[]"
        },
        {
          "name": "clearingPrices",
          "type": "uint256[]",
          "internalType": "uint256[]"
        },
        {
          "name": "trades",
          "type": "tuple[]",
          "internalType": "struct GPv2Trade.Data[]",
          "components": [
            {
              "name": "sellTokenIndex",
              "type": "uint256",
              "internalType": "uint256"
            },
            {
              "name": "buyTokenIndex",
              "type": "uint256",
              "internalType": "uint256"
            },
            {
              "name": "receiver",
              "type": "address",
              "internalType": "address"
            },
            {
              "name": "sellAmount",
              "type": "uint256",
              "internalType": "uint256"
            },
            {
              "name": "buyAmount",
              "type": "uint256",
              "internalType": "uint256"
            },
            {
              "name": "validTo",
              "type": "uint32",
              "internalType": "uint32"
            },
            {
              "name": "appData",
              "type": "bytes32",
              "internalType": "bytes32"
            },
            {
              "name": "feeAmount",
              "type": "uint256",
              "internalType": "uint256"
            },
            {
              "name": "flags",
              "type": "uint256",
              "internalType": "uint256"
            },
            {
              "name": "executedAmount",
              "type": "uint256",
              "internalType": "uint256"
            },
            {
              "name": "signature",
              "type": "bytes",
              "internalType": "bytes"
            }
          ]
        },
        {
          "name": "interactions",
          "type": "tuple[][3]",
          "internalType": "struct GPv2Interaction.Data[][3]",
          "components": [
            {
              "name": "target",
              "type": "address",
              "internalType": "address"
            },
            {
              "name": "value",
              "type": "uint256",
              "internalType": "uint256"
            },
            {
              "name": "callData",
              "type": "bytes",
              "internalType": "bytes"
            }
          ]
        }
      ],
      "outputs": [],
      "stateMutability": "nonpayable"
    },
    {
      "type": "function",
      "name": "simulateDelegatecall",
      "inputs": [
        {
          "name": "targetContract",
          "type": "address",
          "internalType": "address"
        },
        {
          "name": "calldataPayload",
          "type": "bytes",
          "internalType": "bytes"
        }
      ],
      "outputs": [
        {
          "name": "response",
          "type": "bytes",
          "internalType": "bytes"
        }
      ],
      "stateMutability": "nonpayable"
    },
    {
      "type": "function",
      "name": "simulateDelegatecallInternal",
      "inputs": [
        {
          "name": "targetContract",
          "type": "address",
          "internalType": "address"
        },
        {
          "name": "calldataPayload",
          "type": "bytes",
          "internalType": "bytes"
        }
      ],
      "outputs": [
        {
          "name": "response",
          "type": "bytes",
          "internalType": "bytes"
        }
      ],
      "stateMutability": "nonpayable"
    },
    {
      "type": "function",
      "name": "swap",
      "inputs": [
        {
          "name": "swaps",
          "type": "tuple[]",
          "internalType": "struct IVault.BatchSwapStep[]",
          "components": [
            {
              "name": "poolId",
              "type": "bytes32",
              "internalType": "bytes32"
            },
            {
              "name": "assetInIndex",
              "type": "uint256",
              "internalType": "uint256"
            },
            {
              "name": "assetOutIndex",
              "type": "uint256",
              "internalType": "uint256"
            },
            {
              "name": "amount",
              "type": "uint256",
              "internalType": "uint256"
            },
            {
              "name": "userData",
              "type": "bytes",
              "internalType": "bytes"
            }
          ]
        },
        {
          "name": "tokens",
          "type": "address[]",
          "internalType": "contract IERC20[]"
        },
        {
          "name": "trade",
          "type": "tuple",
          "internalType": "struct GPv2Trade.Data",
          "components": [
            {
              "name": "sellTokenIndex",
              "type": "uint256",
              "internalType": "uint256"
            },
            {
              "name": "buyTokenIndex",
              "type": "uint256",
              "internalType": "uint256"
            },
            {
              "name": "receiver",
              "type": "address",
              "internalType": "address"
            },
            {
              "name": "sellAmount",
              "type": "uint256",
              "internalType": "uint256"
            },
            {
              "name": "buyAmount",
              "type": "uint256",
              "internalType": "uint256"
            },
            {
              "name": "validTo",
              "type": "uint32",
              "internalType": "uint32"
            },
            {
              "name": "appData",
              "type": "bytes32",
              "internalType": "bytes32"
            },
            {
              "name": "feeAmount",
              "type": "uint256",
              "internalType": "uint256"
            },
            {
              "name": "flags",
              "type": "uint256",
              "internalType": "uint256"
            },
            {
              "name": "executedAmount",
              "type": "uint256",
              "internalType": "uint256"
            },
            {
              "name": "signature",
              "type": "bytes",
              "internalType": "bytes"
            }
          ]
        }
      ],
      "outputs": [],
      "stateMutability": "nonpayable"
    },
    {
      "type": "function",
      "name": "vault",
      "inputs": [],
      "outputs": [
        {
          "name": "",
          "type": "address",
          "internalType": "contract IVault"
        }
      ],
      "stateMutability": "view"
    },
    {
      "type": "function",
      "name": "vaultRelayer",
      "inputs": [],
      "outputs": [
        {
          "name": "",
          "type": "address",
          "internalType": "contract GPv2VaultRelayer"
        }
      ],
      "stateMutability": "view"
    },
    {
      "type": "event",
      "name": "DebugComputeTradeExecutionsComplete",
      "inputs": [
        {
          "name": "inTransfers",
          "type": "uint256",
          "indexed": false,
          "internalType": "uint256"
        },
        {
          "name": "outTransfers",
          "type": "uint256",
          "indexed": false,
          "internalType": "uint256"
        }
      ],
      "anonymous": false
    },
    {
      "type": "event",
      "name": "DebugComputeTradeExecutionsStart",
      "inputs": [
        {
          "name": "numTrades",
          "type": "uint256",
          "indexed": false,
          "internalType": "uint256"
        }
      ],
      "anonymous": false
    },
    {
      "type": "event",
      "name": "DebugMidInteractionsComplete",
      "inputs": [],
      "anonymous": false
    },
    {
      "type": "event",
      "name": "DebugPostInteractionsComplete",
      "inputs": [],
      "anonymous": false
    },
    {
      "type": "event",
      "name": "DebugPreInteractionsComplete",
      "inputs": [],
      "anonymous": false
    },
    {
      "type": "event",
      "name": "DebugSettleStart",
      "inputs": [
        {
          "name": "solver",
          "type": "address",
          "indexed": true,
          "internalType": "address"
        },
        {
          "name": "numTrades",
          "type": "uint256",
          "indexed": false,
          "internalType": "uint256"
        }
      ],
      "anonymous": false
    },
    {
      "type": "event",
      "name": "DebugTradeExecution",
      "inputs": [
        {
          "name": "orderUid",
          "type": "bytes",
          "indexed": false,
          "internalType": "bytes"
        },
        {
          "name": "owner",
          "type": "address",
          "indexed": false,
          "internalType": "address"
        },
        {
          "name": "sellAmount",
          "type": "uint256",
          "indexed": false,
          "internalType": "uint256"
        },
        {
          "name": "buyAmount",
          "type": "uint256",
          "indexed": false,
          "internalType": "uint256"
        },
        {
          "name": "feeAmount",
          "type": "uint256",
          "indexed": false,
          "internalType": "uint256"
        },
        {
          "name": "isExpired",
          "type": "bool",
          "indexed": false,
          "internalType": "bool"
        }
      ],
      "anonymous": false
    },
    {
      "type": "event",
      "name": "DebugTransferFromAccountsComplete",
      "inputs": [],
      "anonymous": false
    },
    {
      "type": "event",
      "name": "DebugTransferFromAccountsStart",
      "inputs": [
        {
          "name": "numTransfers",
          "type": "uint256",
          "indexed": false,
          "internalType": "uint256"
        }
      ],
      "anonymous": false
    },
    {
      "type": "event",
      "name": "DebugTransferToAccountsComplete",
      "inputs": [],
      "anonymous": false
    },
    {
      "type": "event",
      "name": "DebugTransferToAccountsStart",
      "inputs": [
        {
          "name": "numTransfers",
          "type": "uint256",
          "indexed": false,
          "internalType": "uint256"
        }
      ],
      "anonymous": false
    },
    {
      "type": "event",
      "name": "Interaction",
      "inputs": [
        {
          "name": "target",
          "type": "address",
          "indexed": true,
          "internalType": "address"
        },
        {
          "name": "value",
          "type": "uint256",
          "indexed": false,
          "internalType": "uint256"
        },
        {
          "name": "selector",
          "type": "bytes4",
          "indexed": false,
          "internalType": "bytes4"
        }
      ],
      "anonymous": false
    },
    {
      "type": "event",
      "name": "OrderInvalidated",
      "inputs": [
        {
          "name": "owner",
          "type": "address",
          "indexed": true,
          "internalType": "address"
        },
        {
          "name": "orderUid",
          "type": "bytes",
          "indexed": false,
          "internalType": "bytes"
        }
      ],
      "anonymous": false
    },
    {
      "type": "event",
      "name": "PreSignature",
      "inputs": [
        {
          "name": "owner",
          "type": "address",
          "indexed": true,
          "internalType": "address"
        },
        {
          "name": "orderUid",
          "type": "bytes",
          "indexed": false,
          "internalType": "bytes"
        },
        {
          "name": "signed",
          "type": "bool",
          "indexed": false,
          "internalType": "bool"
        }
      ],
      "anonymous": false
    },
    {
      "type": "event",
      "name": "Settlement",
      "inputs": [
        {
          "name": "solver",
          "type": "address",
          "indexed": true,
          "internalType": "address"
        }
      ],
      "anonymous": false
    },
    {
      "type": "event",
      "name": "Trade",
      "inputs": [
        {
          "name": "owner",
          "type": "address",
          "indexed": true,
          "internalType": "address"
        },
        {
          "name": "sellToken",
          "type": "address",
          "indexed": false,
          "internalType": "contract IERC20"
        },
        {
          "name": "buyToken",
          "type": "address",
          "indexed": false,
          "internalType": "contract IERC20"
        },
        {
          "name": "sellAmount",
          "type": "uint256",
          "indexed": false,
          "internalType": "uint256"
        },
        {
          "name": "buyAmount",
          "type": "uint256",
          "indexed": false,
          "internalType": "uint256"
        },
        {
          "name": "feeAmount",
          "type": "uint256",
          "indexed": false,
          "internalType": "uint256"
        },
        {
          "name": "orderUid",
          "type": "bytes",
          "indexed": false,
          "internalType": "bytes"
        }
      ],
      "anonymous": false
    }
  ],
  "bytecode": {
    "object": "0x6101006040523480156200001257600080fd5b506040516200569d3803806200569d83398101604081905262000035916200015b565b604080517f8b73c3c69bb8fe3d512ecc4cf759cc79239f7b179b0ffacaa9a75d522b39400f6020808301919091527f6c85c0337eba1661327f94f3bf46c8a7f9311a563f4d5c948362567f5d8ed60c828401527ff9446b8e937d86f0bc87cac73923491692b123ca5f8761908494703758206adf606080840191909152466080808501919091523060a08086019190915285518086038201815260c09586019687905280519401939093209052600180556001600160601b031986821b811690925284901b16905281906200010a906200014d565b62000116919062000199565b604051809103906000f08015801562000133573d6000803e3d6000fd5b5060601b6001600160601b03191660e05250620001c69050565b61129e80620043ff83390190565b600080604083850312156200016e578182fd5b82516200017b81620001ad565b60208401519092506200018e81620001ad565b809150509250929050565b6001600160a01b0391909116815260200190565b6001600160a01b0381168114620001c357600080fd5b50565b60805160a05160601c60c05160601c60e05160601c6141d762000228600039806105d25280610f45528061127452806117d45250806106e8528061176f52508061039252806108a05280610b81525080611502528061262f52506141d76000f3fe6080604052600436106100ec5760003560e01c80639b552cc21161008a578063ed9f35ce11610059578063ed9f35ce14610274578063f698da2514610294578063f84436bd146102a9578063fbfa77cf146102c9576100f3565b80639b552cc2146101ff578063a2a7d51b14610214578063d08d33d114610234578063ec6cb13f14610254576100f3565b80632479fb6e116100c65780632479fb6e1461016557806343218e19146101925780635624b25b146101bf578063845a101f146101df576100f3565b806313d79a0b146100f857806315337bc01461011a5780632335c76b1461013a576100f3565b366100f357005b600080fd5b34801561010457600080fd5b5061011861011336600461347e565b6102de565b005b34801561012657600080fd5b50610118610135366004613691565b6107a5565b34801561014657600080fd5b5061014f61089e565b60405161015c919061393e565b60405180910390f35b34801561017157600080fd5b5061018561018036600461371a565b6108c2565b60405161015c9190613a40565b34801561019e57600080fd5b506101b26101ad3660046133f0565b6108df565b60405161015c9190613a5d565b3480156101cb57600080fd5b506101b26101da36600461374d565b610a57565b3480156101eb57600080fd5b506101186101fa3660046135de565b610acd565b34801561020b57600080fd5b5061014f611272565b34801561022057600080fd5b5061011861022f36600461343e565b611296565b34801561024057600080fd5b5061018561024f36600461371a565b6112df565b34801561026057600080fd5b5061011861026f3660046136c5565b6112fc565b34801561028057600080fd5b5061011861028f36600461343e565b6114bb565b3480156102a057600080fd5b50610185611500565b3480156102b557600080fd5b506101b26102c43660046133f0565b611524565b3480156102d557600080fd5b5061014f61176d565b6002600154141561035057604080517f08c379a000000000000000000000000000000000000000000000000000000000815260206004820152601f60248201527f5265656e7472616e637947756172643a207265656e7472616e742063616c6c00604482015290519081900360640190fd5b60026001556040517f02cc250d00000000000000000000000000000000000000000000000000000000815273ffffffffffffffffffffffffffffffffffffffff7f000000000000000000000000000000000000000000000000000000000000000016906302cc250d906103c790339060040161393e565b60206040518083038186803b1580156103df57600080fd5b505afa1580156103f3573d6000803e3d6000fd5b505050506040513d601f19601f820116820180604052508101906104179190613675565b610456576040517f08c379a000000000000000000000000000000000000000000000000000000000815260040161044d90613f1c565b60405180910390fd5b60405133907f7c3354d25cde0396b97e394765fc57e6725a2af3bd430f2fa5fb18c1275b767390610488908590613a40565b60405180910390a26104ac8160005b6020028101906104a79190613fc8565b611791565b6040517fb30270a37e2e4cc4e92f89e7e547d3071f3df248b1d38087d25e1b3428b66cc390600090a16040517f37c8fc3ebb5e40b9957fb555efaa44a206d443b7ac930fb87ca80bd4aa86a5c290610505908490613a40565b60405180910390a160008061051e8989898989896118ce565b915091507f6e54a7dbb4b29f8784749754dededb16b110602787effe25acd400ba0139da4782518251604051610555929190613fba565b60405180910390a17f3800ddfb7721134ba29414e8edf556e71bbc37c70fc77f684cfbea4cdd1deb3e825160405161058d9190613a40565b60405180910390a16040517f7d10d11f00000000000000000000000000000000000000000000000000000000815273ffffffffffffffffffffffffffffffffffffffff7f00000000000000000000000000000000000000000000000000000000000000001690637d10d11f9061060790859060040161395f565b600060405180830381600087803b15801561062157600080fd5b505af1158015610635573d6000803e3d6000fd5b50506040517f307733f9f689d0bf848ca325cddded11e589c82ea2e55dbb22f929d9a7fe3bac925060009150a161066d836001610497565b6040517fa04bed3ab5f235073cbe25d194bb3d5c636f079ec1baa00d440bd241e18ce96590600090a17f1f51c6f18a8d6b960829349f9d73b906fe712f3a831efd9a60b255e4c7f1174f81516040516106c69190613a40565b60405180910390a161070e73ffffffffffffffffffffffffffffffffffffffff7f00000000000000000000000000000000000000000000000000000000000000001682611a35565b6040517fba2eda774c2667685901b47fd7e31a3eb285c4abda72da45c11ab9d78636fc1190600090a1610742836002610497565b6040517f0d82c2d8bda7f712283f61fcc6206fdc702fdba0d2febffc66566be95eb8fbbd90600090a160405133907f40338ce1a7c49204f0099533b1e9a7ee0a3d261f84974ab7af36105b8c4e9db490600090a250506001805550505050505050565b60006107b18383611d13565b5091505073ffffffffffffffffffffffffffffffffffffffff81163314610804576040517f08c379a000000000000000000000000000000000000000000000000000000000815260040161044d90613cbf565b7fffffffffffffffffffffffffffffffffffffffffffffffffffffffffffffffff60028484604051610837929190613912565b9081526020016040518091039020819055508073ffffffffffffffffffffffffffffffffffffffff167f875b6cb035bbd4ac6500fabc6d1e4ca5bdc58a3e2b424ccb5c24cdbebeb009a98484604051610891929190613a49565b60405180910390a2505050565b7f000000000000000000000000000000000000000000000000000000000000000081565b805160208183018101805160028252928201919093012091525481565b606060008373ffffffffffffffffffffffffffffffffffffffff16836040518082805190602001908083835b6020831061094857805182527fffffffffffffffffffffffffffffffffffffffffffffffffffffffffffffffe0909201916020918201910161090b565b6001836020036101000a038019825116818451168082178552505050505050905001915050600060405180830381855af49150503d80600081146109a8576040519150601f19603f3d011682016040523d82523d6000602084013e6109ad565b606091505b508093508192505050610a5082826040516020018083805190602001908083835b60208310610a0b57805182527fffffffffffffffffffffffffffffffffffffffffffffffffffffffffffffffe090920191602091820191016109ce565b6001836020036101000a03801982511681845116808217855250505050505090500182151560f81b815260010192505050604051602081830303815290604052611da1565b5092915050565b606060008260200267ffffffffffffffff81118015610a7557600080fd5b506040519080825280601f01601f191660200182016040528015610aa0576020820181803683370190505b50905060005b83811015610ac35784810154602080830284010152600101610aa6565b5090505b92915050565b60026001541415610b3f57604080517f08c379a000000000000000000000000000000000000000000000000000000000815260206004820152601f60248201527f5265656e7472616e637947756172643a207265656e7472616e742063616c6c00604482015290519081900360640190fd5b60026001556040517f02cc250d00000000000000000000000000000000000000000000000000000000815273ffffffffffffffffffffffffffffffffffffffff7f000000000000000000000000000000000000000000000000000000000000000016906302cc250d90610bb690339060040161393e565b60206040518083038186803b158015610bce57600080fd5b505afa158015610be2573d6000803e3d6000fd5b505050506040513d601f19601f82011682018060405250810190610c069190613675565b610c3c576040517f08c379a000000000000000000000000000000000000000000000000000000000815260040161044d90613f1c565b6000610c46611da9565b8051909150610c5782868686611dd6565b60007ff3b277728b3fee749481eb3e0b3b48980dbbab78658fc419025cb16eee34677582610100015114610c8c576001610c8f565b60005b9050610c996131e0565b60408085015173ffffffffffffffffffffffffffffffffffffffff90811683526101408501517f4ac99ace14ee0a5ef932dc609df0943ab7ac16b7583634612f8dc35a4289a6ce9081146020850152606080880151909216928401929092526101608501519091149082015260008667ffffffffffffffff81118015610d1e57600080fd5b50604051908082528060200260200182016040528015610d48578160200160208202803683370190505b50610100850151909150610120870135907ff3b277728b3fee749481eb3e0b3b48980dbbab78658fc419025cb16eee3467751415610e14578460800151811015610dbe576040517f08c379a000000000000000000000000000000000000000000000000000000000815260040161044d90613ee5565b610dcb8560600151611e74565b82886000013581518110610ddb57fe5b602002602001018181525050610df081611e74565b60000382886020013581518110610e0357fe5b602002602001018181525050610ea4565b8460600151811115610e52576040517f08c379a000000000000000000000000000000000000000000000000000000000815260040161044d90613e40565b610e5b81611e74565b82886000013581518110610e6b57fe5b602002602001018181525050610e848560800151611e74565b60000382886020013581518110610e9757fe5b6020026020010181815250505b610eac6131e0565b8660400151816000019073ffffffffffffffffffffffffffffffffffffffff16908173ffffffffffffffffffffffffffffffffffffffff16815250508560000151816020019073ffffffffffffffffffffffffffffffffffffffff16908173ffffffffffffffffffffffffffffffffffffffff16815250508560e0015181604001818152505085610140015181606001818152505060007f000000000000000000000000000000000000000000000000000000000000000073ffffffffffffffffffffffffffffffffffffffff16634817a286878f8f8f8f8b8b8f60a001518b6040518a63ffffffff1660e01b8152600401610fb099989796959493929190613b1b565b600060405180830381600087803b158015610fca57600080fd5b505af1158015610fde573d6000803e3d6000fd5b505050506040513d6000823e601f3d9081017fffffffffffffffffffffffffffffffffffffffffffffffffffffffffffffffe0168201604052611024919081019061353d565b90506000886020015190506000611051838c600001358151811061104457fe5b6020026020010151611f09565b90506000611078848d602001358151811061106857fe5b6020026020010151600003611f09565b905060028360405161108a9190613922565b9081526020016040518091039020546000146110d2576040517f08c379a000000000000000000000000000000000000000000000000000000000815260040161044d90613e77565b7ff3b277728b3fee749481eb3e0b3b48980dbbab78658fc419025cb16eee3467758a61010001511415611166578960600151821461113c576040517f08c379a000000000000000000000000000000000000000000000000000000000815260040161044d90613d64565b89606001516002846040516111519190613922565b908152604051908190036020019020556111c9565b896080015181146111a3576040517f08c379a000000000000000000000000000000000000000000000000000000000815260040161044d90613d9b565b89608001516002846040516111b89190613922565b908152604051908190036020019020555b8a6040015173ffffffffffffffffffffffffffffffffffffffff167fa07a543ab8a018198e99ca0184c93fe9050a79400a0a723441f84de1d972cc178b600001518c6020015185858f60e001518960405161122996959493929190613ac4565b60405180910390a260405133907f40338ce1a7c49204f0099533b1e9a7ee0a3d261f84974ab7af36105b8c4e9db490600090a25050600180555050505050505050505050505050565b7f000000000000000000000000000000000000000000000000000000000000000081565b3033146112cf576040517f08c379a000000000000000000000000000000000000000000000000000000000815260040161044d90613e09565b6112db60008383611f7a565b5050565b805160208183018101805160008252928201919093012091525481565b60006113088484611d13565b5091505073ffffffffffffffffffffffffffffffffffffffff8116331461139057604080517f08c379a000000000000000000000000000000000000000000000000000000000815260206004820152601a60248201527f475076323a2063616e6e6f74207072657369676e206f72646572000000000000604482015290519081900360640190fd5b81156113ea577ff59c009283ff87aa78203fc4d9c2df025ee851130fb69cc3e068941f6b5e2d6f60001c60008585604051808383808284378083019250505092505050908152602001604051809103902081905550611416565b600080858560405180838380828437919091019485525050604051928390036020019092209290925550505b8073ffffffffffffffffffffffffffffffffffffffff167f01bf7c8b0ca55deecbea89d7e58295b7ffbf685fd0d96801034ba8c6ffe1c68d858585604051808060200183151581526020018281038252858582818152602001925080828437600083820152604051601f9091017fffffffffffffffffffffffffffffffffffffffffffffffffffffffffffffffe016909201829003965090945050505050a250505050565b3033146114f4576040517f08c379a000000000000000000000000000000000000000000000000000000000815260040161044d90613e09565b6112db60028383611f7a565b7f000000000000000000000000000000000000000000000000000000000000000081565b606060006343218e1960e01b8484604051602401808373ffffffffffffffffffffffffffffffffffffffff16815260200180602001828103825283818151815260200191508051906020019080838360005b8381101561158e578181015183820152602001611576565b50505050905090810190601f1680156115bb5780820380516001836020036101000a031916815260200191505b50604080517fffffffffffffffffffffffffffffffffffffffffffffffffffffffffffffffe08184030181529181526020820180517bffffffffffffffffffffffffffffffffffffffffffffffffffffffff167fffffffff00000000000000000000000000000000000000000000000000000000909816979097178752518151919750309688965090945084935091508083835b6020831061168c57805182527fffffffffffffffffffffffffffffffffffffffffffffffffffffffffffffffe0909201916020918201910161164f565b6001836020036101000a0380198251168184511680821785525050505050509050019150506000604051808303816000865af19150503d80600081146116ee576040519150601f19603f3d011682016040523d82523d6000602084013e6116f3565b606091505b5090508092505060008260018451038151811061170c57fe5b602001015160f81c60f81b7effffffffffffffffffffffffffffffffffffffffffffffffffffffffffffff1916600160f81b14905061174f83600185510361202a565b801561175c575050610ac7565b61176583611da1565b505092915050565b7f000000000000000000000000000000000000000000000000000000000000000081565b60005b818110156118c957368383838181106117a957fe5b90506020028101906117bb9190614090565b905073ffffffffffffffffffffffffffffffffffffffff7f00000000000000000000000000000000000000000000000000000000000000001661180160208301836133d4565b73ffffffffffffffffffffffffffffffffffffffff16141561184f576040517f08c379a000000000000000000000000000000000000000000000000000000000815260040161044d90613f53565b6118588161202e565b61186560208201826133d4565b73ffffffffffffffffffffffffffffffffffffffff167fed99827efb37016f2275f98c4bcf71c7551c75d59e9b450f79fa32e60be672c282602001356118aa84612085565b6040516118b8929190613f8a565b60405180910390a250600101611794565b505050565b60608060006118db611da9565b90508367ffffffffffffffff811180156118f457600080fd5b5060405190808252806020026020018201604052801561192e57816020015b61191b6131e0565b8152602001906001900390816119135790505b5092508367ffffffffffffffff8111801561194857600080fd5b5060405190808252806020026020018201604052801561198257816020015b61196f6131e0565b8152602001906001900390816119675790505b50915060005b84811015611a28573686868381811061199d57fe5b90506020028101906119af91906140c3565b90506119bd838c8c84611dd6565b611a1f838a8a84358181106119ce57fe5b905060200201358b8b85602001358181106119e557fe5b905060200201358461012001358987815181106119fe57fe5b6020026020010151898881518110611a1257fe5b60200260200101516120af565b50600101611988565b5050965096945050505050565b6000815167ffffffffffffffff81118015611a4f57600080fd5b50604051908082528060200260200182016040528015611a8957816020015b611a76613207565b815260200190600190039081611a6e5790505b5090506000805b8351811015611c77576000848281518110611aa757fe5b6020026020010151905073eeeeeeeeeeeeeeeeeeeeeeeeeeeeeeeeeeeeeeee73ffffffffffffffffffffffffffffffffffffffff16816020015173ffffffffffffffffffffffffffffffffffffffff161415611bab577f4ac99ace14ee0a5ef932dc609df0943ab7ac16b7583634612f8dc35a4289a6ce81606001511415611b5b576040517f08c379a000000000000000000000000000000000000000000000000000000000815260040161044d90613dd2565b8051604080830151905173ffffffffffffffffffffffffffffffffffffffff9092169181156108fc0291906000818181858888f19350505050158015611ba5573d6000803e3d6000fd5b50611c6e565b7f5a28e9363bb942b639270062aa6bb295f434bcdfc42c97267bf003f272060dc981606001511415611c0a57805160408201516020830151611c059273ffffffffffffffffffffffffffffffffffffffff90911691612466565b611c6e565b6000848480600101955081518110611c1e57fe5b602090810291909101810151600081528382015173ffffffffffffffffffffffffffffffffffffffff90811692820192909252604080850151908201523060608201528351909116608090910152505b50600101611a90565b508015611d0d57611c88828261202a565b6040517f0e8e3e8400000000000000000000000000000000000000000000000000000000815273ffffffffffffffffffffffffffffffffffffffff851690630e8e3e8490611cda9085906004016139ad565b600060405180830381600087803b158015611cf457600080fd5b505af1158015611d08573d6000803e3d6000fd5b505050505b50505050565b6000808060388414611d8657604080517f08c379a000000000000000000000000000000000000000000000000000000000815260206004820152601160248201527f475076323a20696e76616c696420756964000000000000000000000000000000604482015290519081900360640190fd5b5050823593602084013560601c936034013560e01c92509050565b805160208201fd5b611db1613237565b6040805160388082526060820190925290602082018180368337505050602082015290565b83516000611de68386868561253e565b9050600080611e038484611dfe61014089018961402d565b612626565b91509150611e2682828660a001518b602001516126d5909392919063ffffffff16565b73ffffffffffffffffffffffffffffffffffffffff81166040890152611e4c8482612757565b73ffffffffffffffffffffffffffffffffffffffff1660609098019790975250505050505050565b60007f7fffffffffffffffffffffffffffffffffffffffffffffffffffffffffffffff821115611f0557604080517f08c379a000000000000000000000000000000000000000000000000000000000815260206004820152601960248201527f53616665436173743a20696e74323536206f766572666c6f7700000000000000604482015290519081900360640190fd5b5090565b600080821215611f0557604080517f08c379a000000000000000000000000000000000000000000000000000000000815260206004820152601660248201527f53616665436173743a206e6f7420706f73697469766500000000000000000000604482015290519081900360640190fd5b60005b81811015611d0d57366000848484818110611f9457fe5b9050602002810190611fa6919061402d565b915091506000611fb68383611d13565b92505050428163ffffffff1610611ff9576040517f08c379a000000000000000000000000000000000000000000000000000000000815260040161044d90613eae565b600087848460405161200c929190613912565b90815260405190819003602001902055505060019091019050611f7d565b9052565b73ffffffffffffffffffffffffffffffffffffffff813516602082013536600061205b604086018661402d565b9150915060405181838237600080838387895af161207d573d6000803e3d6000fd5b505050505050565b60003681612096604085018561402d565b9092509050600481106120a857813592505b5050919050565b6000866000015190506000876020015190506000428360a0015163ffffffff161090507f9b4eb7f4556a1352e4627acf6b73a4ddfc64291c08ae077411b2eafe1436c8eb828a60400151856060015186608001518760e001518660405161211b96959493929190613a70565b60405180910390a1428360a0015163ffffffff161015612167576040517f08c379a000000000000000000000000000000000000000000000000000000000815260040161044d90613cf6565b60808301516121769088612789565b6060840151612185908a612789565b10156121bd576040517f08c379a000000000000000000000000000000000000000000000000000000000815260040161044d90613d2d565b6000806000807ff3b277728b3fee749481eb3e0b3b48980dbbab78658fc419025cb16eee34677587610100015114156122be578661012001511561222a57899350612223876060015161221d868a60e0015161278990919063ffffffff16565b90612819565b9150612239565b866060015193508660e0015191505b61224d8b612247868f612789565b9061289a565b9250612279846002886040516122639190613922565b9081526040519081900360200190205490612938565b905086606001518111156122b9576040517f08c379a000000000000000000000000000000000000000000000000000000000815260040161044d90613e77565b612365565b866101200151156122f2578992506122eb876080015161221d858a60e0015161278990919063ffffffff16565b9150612301565b866080015192508660e0015191505b61230f8c61221d858e612789565b9350612325836002886040516122639190613922565b90508660800151811115612365576040517f08c379a000000000000000000000000000000000000000000000000000000000815260040161044d90613e77565b61236f8483612938565b9350806002876040516123829190613922565b9081526020016040518091039020819055508c6040015173ffffffffffffffffffffffffffffffffffffffff167fa07a543ab8a018198e99ca0184c93fe9050a79400a0a723441f84de1d972cc17886000015189602001518787878c6040516123f096959493929190613ac4565b60405180910390a250506040808c015173ffffffffffffffffffffffffffffffffffffffff9081168952865181166020808b0191909152898301949094526101408701516060998a01529b8801518c16875282860151909b16918601919091529884019890985250610160015191015250505050565b6040517fa9059cbb0000000000000000000000000000000000000000000000000000000080825273ffffffffffffffffffffffffffffffffffffffff84166004830152602482018390529060008060448382895af16124c9573d6000803e3d6000fd5b506124d3846129ac565b611d0d57604080517f08c379a000000000000000000000000000000000000000000000000000000000815260206004820152601560248201527f475076323a206661696c6564207472616e736665720000000000000000000000604482015290519081900360640190fd5b60008383863581811061254d57fe5b6020908102929092013573ffffffffffffffffffffffffffffffffffffffff168452508490849087013581811061258057fe5b73ffffffffffffffffffffffffffffffffffffffff602091820293909301358316908501525060408087013590911690830152606080860135908301526080808601359083015263ffffffff60a080870135919091169083015260c0808601359083015260e080860135908301526125fc610100860135612a76565b61016087019190915261014086019190915290151561012085015261010090930152509392505050565b600080612653867f0000000000000000000000000000000000000000000000000000000000000000612bcb565b9150600085600381111561266357fe5b141561267b57612674828585612c55565b90506126cc565b600185600381111561268957fe5b141561269a57612674828585612c6a565b60028560038111156126a857fe5b14156126b957612674828585612cd2565b6126c98285858960a00151612e70565b90505b94509492505050565b603884511461274557604080517f08c379a000000000000000000000000000000000000000000000000000000000815260206004820152601960248201527f475076323a2075696420627566666572206f766572666c6f7700000000000000604482015290519081900360640190fd5b60388401526034830152602090910152565b604082015160009073ffffffffffffffffffffffffffffffffffffffff16612780575080610ac7565b50506040015190565b60008261279857506000610ac7565b828202828482816127a557fe5b041461281257604080517f08c379a000000000000000000000000000000000000000000000000000000000815260206004820152601660248201527f536166654d6174683a206d756c206f766572666c6f7700000000000000000000604482015290519081900360640190fd5b9392505050565b600080821161288957604080517f08c379a000000000000000000000000000000000000000000000000000000000815260206004820152601760248201527f536166654d6174683a206469766973696f6e2062792030000000000000000000604482015290519081900360640190fd5b81838161289257fe5b049392505050565b600080821161290a57604080517f08c379a000000000000000000000000000000000000000000000000000000000815260206004820152601f60248201527f536166654d6174683a206365696c696e67206469766973696f6e206279203000604482015290519081900360640190fd5b81838161291357fe5b0615612920576001612923565b60005b60ff1682848161292f57fe5b04019392505050565b60008282018381101561281257604080517f08c379a000000000000000000000000000000000000000000000000000000000815260206004820152601b60248201527f536166654d6174683a206164646974696f6e206f766572666c6f770000000000604482015290519081900360640190fd5b60006129ea565b7f08c379a0000000000000000000000000000000000000000000000000000000006000526020600452806024528160445260646000fd5b3d8015612a295760208114612a6357612a247f475076323a206d616c666f726d6564207472616e7366657220726573756c7400601f6129b3565b612a70565b823b612a5a57612a5a7f475076323a206e6f74206120636f6e747261637400000000000000000000000060146129b3565b60019150612a70565b3d6000803e600051151591505b50919050565b60008080808060018616612aac577ff3b277728b3fee749481eb3e0b3b48980dbbab78658fc419025cb16eee3467759450612ad0565b7f6ed88e868af0a1983e3886d5f3e95a2fafbd6c3450bc229e27342283dc429ccc94505b600286161515935060088616612b08577f5a28e9363bb942b639270062aa6bb295f434bcdfc42c97267bf003f272060dc99250612b5c565b60048616612b38577fabee3b73373acd583a130924aad6dc38cfdc44ba0555ba94ce2ff63980ea06329250612b5c565b7f4ac99ace14ee0a5ef932dc609df0943ab7ac16b7583634612f8dc35a4289a6ce92505b60108616612b8c577f5a28e9363bb942b639270062aa6bb295f434bcdfc42c97267bf003f272060dc99150612bb0565b7f4ac99ace14ee0a5ef932dc609df0943ab7ac16b7583634612f8dc35a4289a6ce91505b600586901c6003811115612bc057fe5b905091939590929450565b7fffffffffffffffffffffffffffffffffffffffffffffffffffffffffffffffe090910180517fd5a25ba2e97094ad7d83dc28a6572da797d6b3e7fc6663bd93efb789fc17e48982526101a0822091526040517f19010000000000000000000000000000000000000000000000000000000000008152600281019290925260228201526042902090565b6000612c62848484613035565b949350505050565b6000808460405160200180807f19457468657265756d205369676e6564204d6573736167653a0a333200000000815250601c01828152602001915050604051602081830303815290604052805190602001209050612cc9818585613035565b95945050505050565b813560601c366000612ce7846014818861411a565b604080517f1626ba7e00000000000000000000000000000000000000000000000000000000808252600482018b81526024830193845260448301859052949650929450919273ffffffffffffffffffffffffffffffffffffffff871692631626ba7e928b928892889290606401848480828437600083820152604051601f9091017fffffffffffffffffffffffffffffffffffffffffffffffffffffffffffffffe016909201965060209550909350505081840390508186803b158015612dad57600080fd5b505afa158015612dc1573d6000803e3d6000fd5b505050506040513d6020811015612dd757600080fd5b50517fffffffff000000000000000000000000000000000000000000000000000000001614612e6757604080517f08c379a000000000000000000000000000000000000000000000000000000000815260206004820152601f60248201527f475076323a20696e76616c69642065697031323731207369676e617475726500604482015290519081900360640190fd5b50509392505050565b600060148314612ee157604080517f08c379a000000000000000000000000000000000000000000000000000000000815260206004820152601c60248201527f475076323a206d616c666f726d6564207072657369676e617475726500000000604482015290519081900360640190fd5b506040805160388082526060828101909352853590921c9160009190602082018180368337019050509050612f18818784866126d5565b7ff59c009283ff87aa78203fc4d9c2df025ee851130fb69cc3e068941f6b5e2d6f60001c6000826040518082805190602001908083835b60208310612f8c57805182527fffffffffffffffffffffffffffffffffffffffffffffffffffffffffffffffe09092019160209182019101612f4f565b6001836020036101000a0380198251168184511680821785525050505050509050019150509081526020016040518091039020541461302c57604080517f08c379a000000000000000000000000000000000000000000000000000000000815260206004820152601960248201527f475076323a206f72646572206e6f74207072657369676e656400000000000000604482015290519081900360640190fd5b50949350505050565b6000604182146130a657604080517f08c379a000000000000000000000000000000000000000000000000000000000815260206004820152601f60248201527f475076323a206d616c666f726d6564206563647361207369676e617475726500604482015290519081900360640190fd5b604080516000815260208181018084528790528286013560f81c82840181905286356060840181905282880135608085018190529451909493919260019260a0808201937fffffffffffffffffffffffffffffffffffffffffffffffffffffffffffffffe081019281900390910190855afa158015613129573d6000803e3d6000fd5b50506040517fffffffffffffffffffffffffffffffffffffffffffffffffffffffffffffffe0015194505073ffffffffffffffffffffffffffffffffffffffff84166131d657604080517f08c379a000000000000000000000000000000000000000000000000000000000815260206004820152601d60248201527f475076323a20696e76616c6964206563647361207369676e6174757265000000604482015290519081900360640190fd5b5050509392505050565b60408051608081018252600080825260208201819052918101829052606081019190915290565b6040805160a081019091528060008152600060208201819052604082018190526060820181905260809091015290565b604051806080016040528061324a613264565b815260606020820181905260006040830181905291015290565b6040805161018081018252600080825260208201819052918101829052606081018290526080810182905260a0810182905260c0810182905260e0810182905261010081018290526101208101829052610140810182905261016081019190915290565b60008083601f8401126132d9578182fd5b50813567ffffffffffffffff8111156132f0578182fd5b602083019150836020808302850101111561330a57600080fd5b9250929050565b60008083601f840112613322578182fd5b50813567ffffffffffffffff811115613339578182fd5b60208301915083602082850101111561330a57600080fd5b600082601f830112613361578081fd5b813567ffffffffffffffff81111561337557fe5b6133a660207fffffffffffffffffffffffffffffffffffffffffffffffffffffffffffffffe0601f840116016140f6565b8181528460208386010111156133ba578283fd5b816020850160208301379081016020019190915292915050565b6000602082840312156133e5578081fd5b81356128128161416e565b60008060408385031215613402578081fd5b823561340d8161416e565b9150602083013567ffffffffffffffff811115613428578182fd5b61343485828601613351565b9150509250929050565b60008060208385031215613450578182fd5b823567ffffffffffffffff811115613466578283fd5b613472858286016132c8565b90969095509350505050565b60008060008060008060006080888a031215613498578283fd5b873567ffffffffffffffff808211156134af578485fd5b6134bb8b838c016132c8565b909950975060208a01359150808211156134d3578485fd5b6134df8b838c016132c8565b909750955060408a01359150808211156134f7578485fd5b6135038b838c016132c8565b909550935060608a013591508082111561351b578283fd5b508801606081018a101561352d578182fd5b8091505092959891949750929550565b6000602080838503121561354f578182fd5b825167ffffffffffffffff80821115613566578384fd5b818501915085601f830112613579578384fd5b81518181111561358557fe5b83810291506135958483016140f6565b8181528481019084860184860187018a10156135af578788fd5b8795505b838610156135d15780518352600195909501949186019186016135b3565b5098975050505050505050565b6000806000806000606086880312156135f5578081fd5b853567ffffffffffffffff8082111561360c578283fd5b61361889838a016132c8565b90975095506020880135915080821115613630578283fd5b61363c89838a016132c8565b90955093506040880135915080821115613654578283fd5b5086016101608189031215613667578182fd5b809150509295509295909350565b600060208284031215613686578081fd5b815161281281614193565b600080602083850312156136a3578182fd5b823567ffffffffffffffff8111156136b9578283fd5b61347285828601613311565b6000806000604084860312156136d9578081fd5b833567ffffffffffffffff8111156136ef578182fd5b6136fb86828701613311565b909450925050602084013561370f81614193565b809150509250925092565b60006020828403121561372b578081fd5b813567ffffffffffffffff811115613741578182fd5b612c6284828501613351565b6000806040838503121561375f578182fd5b50508035926020909101359150565b60008284526020808501945082825b858110156137b85781356137908161416e565b73ffffffffffffffffffffffffffffffffffffffff168752958201959082019060010161377d565b509495945050505050565b6000815180845260208085019450808401835b838110156137b8578151875295820195908201906001016137d6565b600082845282826020860137806020848601015260207fffffffffffffffffffffffffffffffffffffffffffffffffffffffffffffffe0601f85011685010190509392505050565b60008151808452613852816020860160208601614142565b601f017fffffffffffffffffffffffffffffffffffffffffffffffffffffffffffffffe0169290920160200192915050565b73ffffffffffffffffffffffffffffffffffffffff8082511683528060208301511660208401525060408101516040830152606081015160608301525050565b73ffffffffffffffffffffffffffffffffffffffff808251168352602082015115156020840152806040830151166040840152506060810151151560608301525050565b63ffffffff169052565b6000828483379101908152919050565b60008251613934818460208701614142565b9190910192915050565b73ffffffffffffffffffffffffffffffffffffffff91909116815260200190565b6020808252825182820181905260009190848201906040850190845b818110156139a15761398e838551613884565b928401926080929092019160010161397b565b50909695505050505050565b602080825282518282018190526000919060409081850190868401855b82811015613a335781518051600481106139e057fe5b85528087015173ffffffffffffffffffffffffffffffffffffffff908116888701528682015187870152606080830151821690870152608091820151169085015260a090930192908501906001016139ca565b5091979650505050505050565b90815260200190565b600060208252612c626020830184866137f2565b600060208252612812602083018461383a565b600060c08252613a8360c083018961383a565b73ffffffffffffffffffffffffffffffffffffffff97909716602083015250604081019490945260608401929092526080830152151560a090910152919050565b600073ffffffffffffffffffffffffffffffffffffffff808916835280881660208401525085604083015284606083015283608083015260c060a0830152613b0f60c083018461383a565b98975050505050505050565b60006101a0820160028c10613b2c57fe5b8b835260206101a081850152818b83526101c0850190506101c0828d0286010192508c845b8d811015613c5a577ffffffffffffffffffffffffffffffffffffffffffffffffffffffffffffffe408786030183527fffffffffffffffffffffffffffffffffffffffffffffffffffffffffffffff618f360301823512613bb0578586fd5b8e823501803586528481013585870152604081013560408701526060810135606087015260808101357fffffffffffffffffffffffffffffffffffffffffffffffffffffffffffffffe1823603018112613c08578788fd5b8101803567ffffffffffffffff811115613c20578889fd5b803603831315613c2e578889fd5b60a06080890152613c4560a08901828985016137f2565b97505050928401925090830190600101613b51565b505050508281036040840152613c7181898b61376e565b9050613c8060608401886138c4565b82810360e0840152613c9281876137c3565b915050613ca3610100830185613908565b613cb1610120830184613884565b9a9950505050505050505050565b6020808252601f908201527f475076323a2063616c6c657220646f6573206e6f74206f776e206f7264657200604082015260600190565b60208082526013908201527f475076323a206f72646572206578706972656400000000000000000000000000604082015260600190565b6020808252601f908201527f475076323a206c696d6974207072696365206e6f742072657370656374656400604082015260600190565b6020808252601f908201527f475076323a2073656c6c20616d6f756e74206e6f742072657370656374656400604082015260600190565b6020808252601e908201527f475076323a2062757920616d6f756e74206e6f74207265737065637465640000604082015260600190565b6020808252601e908201527f475076323a20756e737570706f7274656420696e7465726e616c204554480000604082015260600190565b60208082526018908201527f475076323a206e6f7420616e20696e746572616374696f6e0000000000000000604082015260600190565b60208082526014908201527f475076323a206c696d697420746f6f2068696768000000000000000000000000604082015260600190565b60208082526012908201527f475076323a206f726465722066696c6c65640000000000000000000000000000604082015260600190565b60208082526017908201527f475076323a206f72646572207374696c6c2076616c6964000000000000000000604082015260600190565b60208082526013908201527f475076323a206c696d697420746f6f206c6f7700000000000000000000000000604082015260600190565b60208082526012908201527f475076323a206e6f74206120736f6c7665720000000000000000000000000000604082015260600190565b6020808252601b908201527f475076323a20666f7262696464656e20696e746572616374696f6e0000000000604082015260600190565b9182527fffffffff0000000000000000000000000000000000000000000000000000000016602082015260400190565b918252602082015260400190565b60008083357fffffffffffffffffffffffffffffffffffffffffffffffffffffffffffffffe1843603018112613ffc578283fd5b83018035915067ffffffffffffffff821115614016578283fd5b602090810192508102360382131561330a57600080fd5b60008083357fffffffffffffffffffffffffffffffffffffffffffffffffffffffffffffffe1843603018112614061578283fd5b83018035915067ffffffffffffffff82111561407b578283fd5b60200191503681900382131561330a57600080fd5b600082357fffffffffffffffffffffffffffffffffffffffffffffffffffffffffffffffa1833603018112613934578182fd5b600082357ffffffffffffffffffffffffffffffffffffffffffffffffffffffffffffffea1833603018112613934578182fd5b60405181810167ffffffffffffffff8111828210171561411257fe5b604052919050565b60008085851115614129578182fd5b83861115614135578182fd5b5050820193919092039150565b60005b8381101561415d578181015183820152602001614145565b83811115611d0d5750506000910152565b73ffffffffffffffffffffffffffffffffffffffff8116811461419057600080fd5b50565b801515811461419057600080fdfea2646970667358221220e44c81ebee4bd12f2c28a8fff7d83554efc672515327da65767f1268b1aed5f164736f6c6343000706003360c060405234801561001057600080fd5b5060405161129e38038061129e83398101604081905261002f9161004b565b33606090811b6080521b6001600160601b03191660a052610079565b60006020828403121561005c578081fd5b81516001600160a01b0381168114610072578182fd5b9392505050565b60805160601c60a05160601c6111ee6100b060003980610130528061020152806102bd5250806093528061024c52506111ee6000f3fe608060405234801561001057600080fd5b50600436106100365760003560e01c80634817a2861461003b5780637d10d11f14610064575b600080fd5b61004e610049366004610cd9565b610079565b60405161005b9190610eb3565b60405180910390f35b610077610072366004610c69565b610234565b005b60603373ffffffffffffffffffffffffffffffffffffffff7f000000000000000000000000000000000000000000000000000000000000000016146100f3576040517f08c379a00000000000000000000000000000000000000000000000000000000081526004016100ea906110e5565b60405180910390fd5b6040517f945bcec900000000000000000000000000000000000000000000000000000000815273ffffffffffffffffffffffffffffffffffffffff7f0000000000000000000000000000000000000000000000000000000000000000169063945bcec990610171908c908c908c908c908c908c908c90600401610f59565b600060405180830381600087803b15801561018b57600080fd5b505af115801561019f573d6000803e3d6000fd5b505050506040513d6000823e601f3d9081017fffffffffffffffffffffffffffffffffffffffffffffffffffffffffffffffe01682016040526101e59190810190610bd9565b905061022873ffffffffffffffffffffffffffffffffffffffff7f00000000000000000000000000000000000000000000000000000000000000001683336102e9565b98975050505050505050565b3373ffffffffffffffffffffffffffffffffffffffff7f000000000000000000000000000000000000000000000000000000000000000016146102a3576040517f08c379a00000000000000000000000000000000000000000000000000000000081526004016100ea906110e5565b6102e573ffffffffffffffffffffffffffffffffffffffff7f000000000000000000000000000000000000000000000000000000000000000016838333610551565b5050565b73eeeeeeeeeeeeeeeeeeeeeeeeeeeeeeeeeeeeeeee61030e6040840160208501610bb6565b73ffffffffffffffffffffffffffffffffffffffff16141561035c576040517f08c379a00000000000000000000000000000000000000000000000000000000081526004016100ea9061111c565b7f5a28e9363bb942b639270062aa6bb295f434bcdfc42c97267bf003f272060dc9826060013514156103d0576103cb6103986020840184610bb6565b82604085018035906103ad9060208801610bb6565b73ffffffffffffffffffffffffffffffffffffffff16929190610816565b61054c565b604080516001808252818301909252600091816020015b6103ef6109cb565b8152602001906001900390816103e757905050905060008160008151811061041357fe5b602002602001015190507fabee3b73373acd583a130924aad6dc38cfdc44ba0555ba94ce2ff63980ea063284606001351461044f576002610452565b60035b8190600381111561045f57fe5b9081600381111561046c57fe5b90525061047f6040850160208601610bb6565b73ffffffffffffffffffffffffffffffffffffffff16602080830191909152604080860135908301526104b490850185610bb6565b73ffffffffffffffffffffffffffffffffffffffff908116606083015283811660808301526040517f0e8e3e8400000000000000000000000000000000000000000000000000000000815290861690630e8e3e8490610517908590600401610ec6565b600060405180830381600087803b15801561053157600080fd5b505af1158015610545573d6000803e3d6000fd5b5050505050505b505050565b60008267ffffffffffffffff8111801561056a57600080fd5b506040519080825280602002602001820160405280156105a457816020015b6105916109cb565b8152602001906001900390816105895790505b5090506000805b8481101561077857368686838181106105c057fe5b60800291909101915073eeeeeeeeeeeeeeeeeeeeeeeeeeeeeeeeeeeeeeee90506105f06040830160208401610bb6565b73ffffffffffffffffffffffffffffffffffffffff16141561063e576040517f08c379a00000000000000000000000000000000000000000000000000000000081526004016100ea9061111c565b7f5a28e9363bb942b639270062aa6bb295f434bcdfc42c97267bf003f272060dc9816060013514156106945761068f61067a6020830183610bb6565b86604084018035906103ad9060208701610bb6565b61076f565b60008484806001019550815181106106a857fe5b602002602001015190507fabee3b73373acd583a130924aad6dc38cfdc44ba0555ba94ce2ff63980ea06328260600135146106e45760016106e7565b60035b819060038111156106f457fe5b9081600381111561070157fe5b9052506107146040830160208401610bb6565b73ffffffffffffffffffffffffffffffffffffffff166020808301919091526040808401359083015261074990830183610bb6565b73ffffffffffffffffffffffffffffffffffffffff908116606083015286166080909101525b506001016105ab565b50801561080e5761078982826108fd565b6040517f0e8e3e8400000000000000000000000000000000000000000000000000000000815273ffffffffffffffffffffffffffffffffffffffff871690630e8e3e84906107db908590600401610ec6565b600060405180830381600087803b1580156107f557600080fd5b505af1158015610809573d6000803e3d6000fd5b505050505b505050505050565b6040517f23b872dd0000000000000000000000000000000000000000000000000000000080825273ffffffffffffffffffffffffffffffffffffffff8581166004840152841660248301526044820183905290600080606483828a5af1610881573d6000803e3d6000fd5b5061088b85610901565b6108f657604080517f08c379a000000000000000000000000000000000000000000000000000000000815260206004820152601960248201527f475076323a206661696c6564207472616e7366657246726f6d00000000000000604482015290519081900360640190fd5b5050505050565b9052565b600061093f565b7f08c379a0000000000000000000000000000000000000000000000000000000006000526020600452806024528160445260646000fd5b3d801561097e57602081146109b8576109797f475076323a206d616c666f726d6564207472616e7366657220726573756c7400601f610908565b6109c5565b823b6109af576109af7f475076323a206e6f74206120636f6e74726163740000000000000000000000006014610908565b600191506109c5565b3d6000803e600051151591505b50919050565b6040805160a081019091528060008152600060208201819052604082018190526060820181905260809091015290565b600082601f830112610a0b578081fd5b81356020610a20610a1b83611175565b611151565b8281528181019085830183850287018401881015610a3c578586fd5b855b85811015610a63578135610a5181611193565b84529284019290840190600101610a3e565b5090979650505050505050565b600082601f830112610a80578081fd5b81356020610a90610a1b83611175565b8281528181019085830183850287018401881015610aac578586fd5b855b85811015610a6357813584529284019290840190600101610aae565b60008083601f840112610adb578182fd5b50813567ffffffffffffffff811115610af2578182fd5b6020830191508360208083028501011115610b0c57600080fd5b9250929050565b80358015158114610b2357600080fd5b919050565b6000608082840312156109c5578081fd5b600060808284031215610b4a578081fd5b6040516080810181811067ffffffffffffffff82111715610b6757fe5b6040529050808235610b7881611193565b8152610b8660208401610b13565b60208201526040830135610b9981611193565b6040820152610baa60608401610b13565b60608201525092915050565b600060208284031215610bc7578081fd5b8135610bd281611193565b9392505050565b60006020808385031215610beb578182fd5b825167ffffffffffffffff811115610c01578283fd5b8301601f81018513610c11578283fd5b8051610c1f610a1b82611175565b8181528381019083850185840285018601891015610c3b578687fd5b8694505b83851015610c5d578051835260019490940193918501918501610c3f565b50979650505050505050565b60008060208385031215610c7b578081fd5b823567ffffffffffffffff80821115610c92578283fd5b818501915085601f830112610ca5578283fd5b813581811115610cb3578384fd5b866020608083028501011115610cc7578384fd5b60209290920196919550909350505050565b6000806000806000806000806101a0898b031215610cf5578384fd5b883560028110610d03578485fd5b9750602089013567ffffffffffffffff80821115610d1f578586fd5b610d2b8c838d01610aca565b909950975060408b0135915080821115610d43578586fd5b610d4f8c838d016109fb565b9650610d5e8c60608d01610b39565b955060e08b0135915080821115610d73578485fd5b50610d808b828c01610a70565b9350506101008901359150610d998a6101208b01610b28565b90509295985092959890939650565b6000815180845260208085019450808401835b83811015610ded57815173ffffffffffffffffffffffffffffffffffffffff1687529582019590820190600101610dbb565b509495945050505050565b6000815180845260208085019450808401835b83811015610ded57815187529582019590820190600101610e0b565b600082845282826020860137806020848601015260207fffffffffffffffffffffffffffffffffffffffffffffffffffffffffffffffe0601f85011685010190509392505050565b73ffffffffffffffffffffffffffffffffffffffff808251168352602082015115156020840152806040830151166040840152506060810151151560608301525050565b600060208252610bd26020830184610df8565b602080825282518282018190526000919060409081850190868401855b82811015610f4c578151805160048110610ef957fe5b85528087015173ffffffffffffffffffffffffffffffffffffffff908116888701528682015187870152606080830151821690870152608091820151169085015260a09093019290850190600101610ee3565b5091979650505050505050565b600061012080830160028b10610f6b57fe5b8a8452602080850192909252889052610140808401918981028501909101908a845b8b811015611098577ffffffffffffffffffffffffffffffffffffffffffffffffffffffffffffffec087850301855281357fffffffffffffffffffffffffffffffffffffffffffffffffffffffffffffff618e3603018112610fed578687fd5b8d01803585528381013584860152604080820135908601526060808201359086015260a0608080830135368490037fffffffffffffffffffffffffffffffffffffffffffffffffffffffffffffffe101811261104757898afd5b8301803567ffffffffffffffff81111561105f578a8bfd5b80360385131561106d578a8bfd5b83838a0152611081848a01828a8501610e27565b998801999850505093850193505050600101610f8d565b50505083810360408501526110ad8189610da8565b9150506110bd6060840187610e6f565b82810360e08401526110cf8186610df8565b9150508261010083015298975050505050505050565b60208082526011908201527f475076323a206e6f742063726561746f72000000000000000000000000000000604082015260600190565b6020808252818101527f475076323a2063616e6e6f74207472616e73666572206e617469766520455448604082015260600190565b60405181810167ffffffffffffffff8111828210171561116d57fe5b604052919050565b600067ffffffffffffffff82111561118957fe5b5060209081020190565b73ffffffffffffffffffffffffffffffffffffffff811681146111b557600080fd5b5056fea2646970667358221220addf78f9933867b13bfb595f92d06bf1ca903f014437092b1df8accfeef30b2d64736f6c63430007060033",
    "linkReferences": {}
  },
  "methodIdentifiers": {
    "authenticator()": "2335c76b",
    "domainSeparator()": "f698da25",
    "filledAmount(bytes)": "2479fb6e",
    "freeFilledAmountStorage(bytes[])": "ed9f35ce",
    "freePreSignatureStorage(bytes[])": "a2a7d51b",
    "getStorageAt(uint256,uint256)": "5624b25b",
    "invalidateOrder(bytes)": "15337bc0",
    "preSignature(bytes)": "d08d33d1",
    "setPreSignature(bytes,bool)": "ec6cb13f",
    "settle(address[],uint256[],(uint256,uint256,address,uint256,uint256,uint32,bytes32,uint256,uint256,uint256,bytes)[],(address,uint256,bytes)[][3])": "13d79a0b",
    "simulateDelegatecall(address,bytes)": "f84436bd",
    "simulateDelegatecallInternal(address,bytes)": "43218e19",
    "swap((bytes32,uint256,uint256,uint256,bytes)[],address[],(uint256,uint256,address,uint256,uint256,uint32,bytes32,uint256,uint256,uint256,bytes))": "845a101f",
    "vault()": "fbfa77cf",
    "vaultRelayer()": "9b552cc2"
  },
  "id": 1
}