{"abi":[{"type":"function","name":"Q112","inputs":[],"outputs":[{"name":"","type":"uint256","internalType":"uint256"}],"stateMutability":"view"},{"type":"function","name":"RESOLUTION","inputs":[],"outputs":[{"name":"","type":"uint8","internalType":"uint8"}],"stateMutability":"view"}],"bytecode":{"object":"0x60c4610025600b82828239805160001a60731461001857fe5b30600052607381538281f3fe7300000000000000000000000000000000000000003014608060405260043610603d5760003560e01c80633bf7a83e146042578063552f888a14605a575b600080fd5b60486076565b60408051918252519081900360200190f35b60606089565b6040805160ff9092168252519081900360200190f35b6e01000000000000000000000000000081565b60708156fea26469706673582212202aff64d66284c79c0cac988c53cc9e6135f844badc6fce42a3c523282d470e9b64736f6c63430006060033","linkReferences":{}},"methodIdentifiers":{"Q112()":"3bf7a83e","RESOLUTION()":"552f888a"},"id":2}